:02000000ff00ff
:080002004c6174746963650030
:17000a00694345637562653220323031372e30382e32373934300069
:16002100506172743a2069434534304858344b2d545131343400f9
:1b003700446174653a204a616e20333120323032302031353a31333a31360090
:0200520000ffad
:040054007eaa997e69
:02005800510055
:02005a0001059e
:03005c00920020ef
:03005f00620367d2
:0300620072011018
:0300650082000016
:02006800110085
:02006a00010192
:20006c00000000000000000000000000000000000000000000000040000000000000000034
:20008c00000000000400000000000010000000000000000000000000000000000000000040
:2000ac0000000000010000000000000400000000000000000000000000000000000000012e
:0d00cc000000000000000400000000000023
:2000d900000000000000000000000000000000000000000000000000000000000000000007
:2000f9000000000000000000000000000000000000000000000000000000000000000000e7
:200119000000000000000000000000000000000000000000000000000000000000000000c6
:0d01390000000000000000000000000000b9
:20014600000000000000000000000000000000000000000000000040000000000000000059
:20016600000000000400000000000010000000000000000000000000000000000000000065
:20018600000000000100000000000004000000000000000000000000000000000000000153
:0d01a6000000000000000400000000000048
:2001b30000000000000000000000000000000000000000000000000000000000000000002c
:2001d30000000000000000000000000000000000000000000000000000000000000000000c
:2001f3000000000000000000000000000000000000000000000000000000000000000000ec
:0d02130000000000000000000000000000de
:2002200000000000000000000000000000000000000000000000008000000000000000003e
:20024000000000000800000000000020000000000000000000000000000000000000000076
:20026000000000000200000000000008000000000000000000000000000000000000000272
:0d0280000000000000000800000000000069
:20028d00000000000000000000000000000000000000000000000000000000000000000051
:2002ad00000000000000000000000000000000000000000000000000000000000000000031
:2002cd00000000000000000000000000000000000000000000000000000000000000000011
:0d02ed000000000000000000000000000004
:2002fa000000000000000000000000000000000000000000000000000000000000000000e4
:20031a000000000000000000000000000000000000000000000000000000000000000000c3
:20033a000000000000000000000000000000000000000000000000000000000000000000a3
:0d035a000000000000000000000000000096
:20036700000000000000000000000000000000000000000000000000000000000000000076
:20038700000000000000000000000000000000000000000000000000000000000000000056
:2003a700000000000000000000000000000000000000000000000000000000000000000036
:0d03c7000000000000000000000000000029
:2003d400000000000000000000000000000000000000000000000000000200000000000007
:2003f4000000000000000000000000000000000000000000020000000000000000000000e7
:200414000000000000000000000000000000200000000001e00000000000000000000000c7
:0d043400000000000000000000200000009b
:2004410000000000000000000000000000000000000000000000000000000000000000009b
:2004610000000000000000000000000000000000000000000000000000000000000000007b
:2004810000000000000000000000000000000000000000002000000000000000000000003b
:0d04a100000000000000000000000000004e
:2004ae0000000000000000000000000000000000000000000000000000000000000000002e
:2004ce0000000000000000000000000000000000000000000000000000000000000000000e
:2004ee000000000000000000000000000000000000000000000010000000000100000000dd
:0d050e0000000400000000000000000000dc
:20051b00000000000000000000000000000000000000000000000040000000000000000080
:20053b00000000000000000000000000000000000000400000000000000000000000000060
:20055b0000000000000000000000000400000000000000000000300000000000000000004c
:0d057b00000000000000040000000000006f
:20058800000000000000000000000000000000000000000000000000000000000000000053
:2005a800000000000000000000000000000000000000000000000000000000000000000033
:2005c800000000000000000000000000000000000000000000000000000000000000000013
:0d05e80000000400000000000010000000f2
:2005f5000000000000000000000000000000000000000000000000400000000000000000a6
:20061500000000000000000000000000000000000000400000000000000000000000000085
:200635000000000000000000000000040000000000000000000000000000000000000000a1
:0d0655000000000000000400000000000094
:20066200000000000000000000000000000000000000000000000000000100000000000077
:20068200000000000000001000000000000040000000000000000000000000000000000008
:2006a200000000000000000400000000000010000000000000000000000000000000000024
:0d06c2000000040000000000001000000017
:2006cf0000000000000000000000000000000000000000000000008000000000000000008b
:2006ef0000000000000000000000000000000000000080000000000000000000000000006b
:20070f000000000000000000000000080000000000000000000000000000000200000000c0
:0d072f0000000400000008000000000000b1
:20073c0000000000000000000000000000000000000000000000000000000000000000009d
:20075c0000000000000000000000000000000000000000000000000000000000000000007d
:20077c0000000000000000000000000000000000000000000000000000000000000000005d
:0d079c000000000000000000000000000050
:201bac004000000000000000000000000000000000000000000000000000000000000000d9
:201bcc000000000000000000000000000000000000000000000000000000000000000000f9
:201bec000000000000000000000000000000000000000000000000000200000000000000d7
:0d1c0c0000000000000000000000000000cb
:201c19000002000000000000000000000000000000000000000000000000000000000000a9
:201c390000000000000000000000000000000000000000000000000000000000000000008b
:201c590000000000000000000000000000000000000000000000000000000000000000006b
:0d1c7900000000000000000000000000005e
:201c860000000000000000000000000000000000000000000000000000000000000000003e
:201ca60000000000000000000000000000000000000000000000000000000000000000001e
:201cc6000000000000000000000000000000000000000000000000000000000000000000fe
:0d1ce60000000000000000000000000000f1
:201cf300800000000000000000000000000000000000000000000000000000000000000051
:201d13000000000000000000000000000000000000000000000000000000000000000000b0
:201d3300000000000000000000000000000000000000000000000000000000000000000090
:0d1d53000000000000000000000000000083
:201d60008000000000000000000000000000000000000000000000000000000000000000e3
:201d8000000000000000000000000000000000000000000000000000000000000000000043
:201da000000000000000000000000000000000000000000000000000000000000000000023
:0d1dc0000000000000000000000000000016
:201dcd000000000000000000000000000000000000000000000000000000000000000000f6
:201ded000000000000000000000000000000000000000000000000000000000000000000d6
:201e0d000000000000000000000000000000000000000000000000000000000000000000b5
:0d1e2d0000000000000000000000000000a8
:201e3a00000100000000000000000000000000000000000000000000000000000000000087
:201e5a00000000000000000000000000000000000000000000000000000000000000000068
:201e7a00000000000000000000000000000000000000000000000000000000000000000048
:0d1e9a00000000000000000000000000003b
:201ea70000000000000000000000000000000000000000000000000000000000000000001b
:201ec7000000000000000000000000000000000000000000000000000000000000000000fb
:201ee7000000000000000000000000000000000000000000000000000000000000000000db
:0d1f070000000000000000000000000000cd
:201f14000000000000000000000000000000000000000000000000000000000000000000ad
:201f340000000000000000000000000000000000000000000000000000000000000000008d
:201f540000000000000000000000000000000000000000000000000000000000000000006d
:0d1f74000000000000000000000000000060
:201f8100000000000000000000000000000000000000000000000000000000000000000040
:201fa100000000000000000000000000000000000000000000000000000000000000000020
:201fc100000000000000000000000000000000000000000000000000000000000000000000
:0d1fe10000000000000000000000000000f3
:201fee00400000000000000000000000000000000000000000000000000000000000000093
:20200e000000000000000000000000000000000000000000000000000000000000000000b2
:20202e00000000000000000000000000000000000000000000000000000000000000000092
:0d204e000000000000000000000000000085
:20205b00000000000000000000000000000000000000000000000000000000000000000065
:20207b00000000000000000000000000000000000000000000000000000000000000000045
:20209b00000000000000000000000000000000000000000000000000000000000000000025
:0d20bb000000000000000000000000000018
:2020c8000000000000000000000000000000000000000000000000000000000000000000f8
:2020e8000000000000000000000000000000000000000000000000000000000000000000d8
:202108000000000000000000000000000000000000000000000000000000000000000000b7
:0d21280000000000000000000000000000aa
:2021350080000000000000000000000000000000000000000000000000000000000000000a
:2021550000000000000000000000000000000000000000000000000000000000000000006a
:202175000000000000000000000000000000000000000080000000000000000000000000ca
:0d219500000000000000000000000000003d
:2021a20080000000000000000000000000000000000000000000000000000000000000009d
:2021c2000000000000000000000000000000000000000000000000000000000000000000fd
:2021e2000000000000000000000000000000000000000000000000000000000000000000dd
:0d22020000000000000000000000000000cf
:20220f000000000000000000000000000000000000000000000000000000000000000000af
:20222f0000000000000000000000000000000000000000000000000000000000000000008f
:20224f0000000000000000000000000000000000000000000000000000000000000000006f
:0d226f000000000000000000000000000062
:20227c00400000000000000000000000000000000000000000000000000000000000000002
:20229c00000000000000000000000000000000000000000000000000000000000000000022
:2022bc00000000000000000000000000000000000000000000000000000000000000000002
:0d22dc0000000000000000000000000000f5
:2022e9000002000000000000000000000000000000000000000000000000000000000000d3
:202309000000000000000000000000000000000000000000000000000000000000000000b4
:20232900000000000000000000000000000000000000000000000000000000000000000094
:0d2349000000000000000000000000000087
:20235600000000000000000000000000000000000000000000000000000000000000000067
:20237600000000000000000000000000000000000000000000000000000000000000000047
:20239600000000000000000000000000000000000000000000000000000000000000000027
:0d23b600000000000000000000000000001a
:2023c30080000000000000000000000000000000000000000000000000000000000000007a
:2023e3000000000000000000000000000000000000000000000000000000000000000000da
:202403000000000000000000000000000000000000000000000000000000000000000000b9
:0d24230000000000000000000000000000ac
:2024300080000000000000000000000000000000000000000000000000000000000000000c
:2024500000000000100000000000000000000000000000000000000000000000000000005c
:2024700000000000000000000000000000000000000000000000000000000000000000004c
:0d249000000000000000000000000000003f
:20249d0000000000000000000000000000000000000000000000000000000000000000001f
:2024bd000000000000000000000000000000000000000000000000000000000000000000ff
:2024dd000000000000000000000000000000000000000000000000000000000000000000df
:0d24fd0000000000000000000000000000d2
:20250a000001000000000000000000000000000000000000000000000000000000000000b0
:20252a00000000000000000000000000000000000000000000000000000000000000000091
:20254a00000000000000000000000000000000000000000000000000000000000000000071
:0d256a000000000000000000000000000064
:20257700000000000000000000000000000000000000000000000000000000000000000044
:20259700000000000000000000000000000000000000000000000000000000000000000024
:2025b700000000000000000000000000000000000000000000000000000000000000000004
:0d25d70000000000000000000000000000f7
:2025e4000000000000000000000000000000000000000000000000000000000000000000d7
:202604000000000000000000000000000000000000000000000000000000000000000000b6
:20262400000000000000000000000000000000000000000000000000000000000000000096
:0d2644000000000000000000000000000089
:20265100000000000000000000000000000000000000000000000000000000000000000069
:20267100000000000000000000000000000000000000000000000000000000000000000049
:20269100000000000000000000000000000000000000000000000000000000000000000029
:0d26b100000000000000000000000000001c
:2026be004000000000000000000000000000000000000000000000000000000000000000bc
:2026de000000000000000000000000000000000000000000000000000000000000000000dc
:2026fe000000000000000000000000000000000000000000000000000000000000000000bc
:0d271e0000000000000000000000000000ae
:20272b0000000000000000000000000000000000000000000000000000000000000000008e
:20274b0000000000000000000000000000000000000000000000000000000000000000006e
:20276b0000000000000000000000000000000000000000000000000000000000000000004e
:0d278b000000000000000000000000000041
:20279800000000000000000000000000000000000000000000000000000000000000000021
:2027b800000000000000000000000000000000000000000000000000000000000000000001
:2027d8000000000000000000000000000000000000000000000000000000000000000000e1
:0d27f80000000000000000000000000000d4
:20280500800000000000000000000000000000000000000000000000000000000000000033
:20282500000000000000000000000000000000000000000000000000000000000000000093
:20284500000000000000000000000000000000000000000000000000000000000000000073
:0d2865000000000000000000000000000066
:202872008000000000000000000000000000000000000000000000000000000000000000c6
:20289200000000000000000000000000000000000000000000000000000000000000000026
:2028b200000000000000000000000000000000000000000000000000000000000000000006
:0d28d20000000000000000000000000000f9
:2028df000000000000000000000000000000000000000000000000000000000000000000d9
:2028ff000000000000000000000000000000000000000000000000000000000000000000b9
:20291f00000000000000000000000000000000000000000000000000000000000000000098
:0d293f00000000000000000000000000008b
:20294c0040000000000000000000000000000000000000000000000000000000000000002b
:20296c0000000000000000000000000000000000000000000000000000000000000000004b
:20298c0000000000000000000000000000000000000000000000000000000000000000002b
:0d29ac00000000000000000000000000001e
:2029b9000002000000000000000000000000000000000000000000000000000000000000fc
:2029d9000000000000000000000000000000000000000000000000000000000000000000de
:2029f9000000000000000000000000000000000000000000000000000000000000000000be
:0d2a190000000000000000000000000000b0
:202a2600000000000000000000000000000000000000000000000000000000000000000090
:202a4600000000000000000000000000000000000000000000000000000000000000000070
:202a6600000000000000000000000000000000000000000000000000000000000000000050
:0d2a86000000000000000000000000000043
:202a93008000000000000000000000000000000000000000000000000000000000000000a3
:202ab300000000000000000000000000000000000000000000000000000000000000000003
:202ad3000000000000000000000000000000000000000000000000000000000000000000e3
:0d2af30000000000000000000000000000d6
:202b0000800000000000000000000000000000000000000000000000000000000000000035
:202b2000000000000000000000000000000000000000000000000000000000000000000095
:202b4000000000000000000000000000000000000000000000000000000000000000000075
:0d2b60000000000000000000000000000068
:202b6d00000000000000000000000000000000000000000000000000000000000000000048
:202b8d00000000000000000000000000000000000000000000000000000000000000000028
:202bad00000000000000000000000000000000000000000000000000000000000000000008
:0d2bcd0000000000000000000000000000fb
:202bda000001000000000000000000000000000000000000000000000000000000000000da
:202bfa000000000000000000000000000000000000000000000000000000000000000000bb
:202c1a0000000000000000000000000000000000000000000000000000000000000000009a
:0d2c3a00000000000000000000000000008d
:202c470000000000000000000000000000000000000000000000000000000000000000006d
:202c670000000000000000000000000000000000000000000000000000000000000000004d
:202c870000000000000000000000000000000000000000000000000000000000000000002d
:0d2ca7000000000000000000000000000020
:202cb400000000000000000000000000000000000000000000000000000000000000000000
:202cd4000000000000000000000000000000000000000000000000000000000000000000e0
:202cf4000000000000000000000000000000000000000000000000000000000000000000c0
:0d2d140000000000000000000000000000b2
:202d2100000000000000000000000000000000000000000000000000000000000000000092
:202d4100000000000000000000000000000000000000000000000000000000000000000072
:202d6100000000000000000000000000000000000000000000000000000000000000000052
:0d2d81000000000000000000000000000045
:202d8e004000000000000000000000000000000000000000000000000000000000000000e5
:202dae00000000000000000000000000000000000000000000000000000000000000000005
:202dce000000000000000000000000000000000000000000000000000000000000000000e5
:0d2dee0000000000000000000000000000d8
:202dfb000000000000000000000000000000000000000000000000000000000000000000b8
:202e1b00000000000000000000000000000000000000000000000000000000000000000097
:202e3b00000000000000000000000000000000000000000000000000000000000000000077
:0d2e5b00000000000000000000000000006a
:202e680000000000000000000000000000000000000000000000000000000000000000004a
:202e880000000000000000000000000000000000000000000000000000000000000000002a
:202ea80000000000000000000000000000000000000000000000000000000000000000000a
:0d2ec80000000000000000000000000000fd
:202ed50080000000000000000000000000000000000000000000000000000000000000005d
:202ef5000000000000000000000000000000000000000000000000000000000000000000bd
:202f150000000000000000000000000000000000000000000000000000000000000000009c
:0d2f3500000000000000000000000000008f
:202f42008000000000000000000000000000000000000000000000000000000000000000ef
:202f620000000000000000000000000000000000000000000000000000000000000000004f
:202f820000000000000000000000000000000000000000000000000000000000000000002f
:0d2fa2000000000000000000000000000022
:202faf00000000000000000000000000000000000000000000000000000000000000000002
:0d3fd00000000000000020000000000000c4
:203fdd000000000000000000000000000000000000000000000000000000000000000000c4
:203ffd000000000000000000000000000000000000000000000000000000000000000000a4
:20401d00000000000000000000000000000000000000000000000000000000000000000083
:0d403d000000000000000000000000000076
:20404a00000000000000000000000000000000000000000000000000000000000000000056
:20406a00000000000000000000000000000000000000000000000000000000000000000036
:20408a00000000000000000000000000000000000000000000000000000000000000000016
:0d40aa000000000000000000000000000009
:2040b7000000000000000000000000000000000000000000000000000000000000000000e9
:2040d7000000000000000000000000000000000000000000000000000000000000000000c9
:2040f7000000000000000000000000000000000000000000000000000000000000000000a9
:0d411700000000000000000000000000009b
:2041240000000000000000000000000000000000000000000000000000000000000000007b
:2041440000000000000000000000000000000000000000000000000000000000000000005b
:2041640000000000000000000000000000000000000000000000000000000000000000003b
:0d418400000000000000000000000000002e
:2041910000000000000000000000000000000000000000000000000000000000000000000e
:2041b1000000000000000000000000000000000000000000000000000000000000000000ee
:2041d1000000000000000000000000000000000000000000000000000000000000000000ce
:0d41f10000000000000000000000000000c1
:2041fe000000000000000000000000000000000000000000000000000000000000000000a1
:20421e00000000000000000000000000000000000000000000000000000000000000100070
:20423e0000000000000000000000000100000000000000000000000000100000000000004f
:0d425e004000000000000100000000000012
:20426b00000000000000000000000000000000000000000000000000000000000000000033
:20428b00000000000000000000000000000000000000000000000000000000000000000013
:2042ab000000000000000000000000000000000000000000000000000000000000000000f3
:0d42cb0000000000000000000000000000e6
:2042d8000000000000000000000000000000000000000000000000000000000000000000c6
:2042f8000000000000000000000000000000000000000000000000000000000000000000a6
:20431800000000000000000000000000000000000000000000000000000000000000000085
:0d4338000000000000000000000000000078
:20434500000000000000000000000000000000000000000000000000000000000000000058
:20436500000000000000000000000000000000000000000000000000000000000000000038
:20438500000000000000000000000000000000000000000000000000000000000000000018
:0d43a500000000000000000000000000000b
:2043b2000000000000000000000000000000000000000000000000000000000000000000eb
:2043d2000000000000000000000000000000000000000000000000000000000000000000cb
:2043f2000000000000000000000000000000000000000000000000000000000000000000ab
:0d441200000000000000000000000000009d
:20441f0000000000000000000000000000000000000000000000000000000000000000007d
:20443f00000000000000000000000000000000000000000000000004000000000000000059
:20445f0000000000000000000000000000000000000000000000000000000000000000003d
:0d447f000000000000000000000000000030
:20448c00000000000000000000000000000000000000000000000000000000000000000010
:2044ac000000000000000000000000000000000000000000000000000000000000000000f0
:204b5c004000000000000000000000000000000000000000000000000000000000000000f9
:204b7c00000000000000000000000000000000000000000000000000000000000000000019
:204b9c000000000000000000000000000000000000000000000000000000000000000000f9
:0d4bbc0000000000000000000000000000ec
:204bc9000002000000000000000000000000000000000000000000000000000000000000ca
:204be9000000000000000000000000000000000000000000000000000000000000000000ac
:204c090000000000000000000000000000000000000000000000000000000000000000008b
:0d4c2900000000000000000000000000007e
:204c360000000000000000000000000000000000000000000000000000000000000000005e
:204c560000000000000000000000000000000000000000000000000000000000000000003e
:204c760000000000000000000000000000000000000000000000000000000000000000001e
:0d4c96000000000000000000000000000011
:204ca300800000000000000000000000000000000000000000000000000000000000000071
:204cc3000000000000000000000000000000000000000000000000000100000000000000d0
:204ce3000000000000000000000000000000000000000000000000000000000000000000b1
:0d4d030000000000000000000000000000a3
:204d1000800000000000000000000000000000000000000000000000000000000000000003
:204d3000000000000000000000000000000000000000000000000000000000000000000063
:204d500000000000000000000000000000000000000000000000000000000000000000083b
:0d4d70000000000000000000000000000036
:204d7d00000000000000000000000000000000000000000000000000000000000000000016
:204d9d000000000000000000000000000000000000000000000000000000000000000000f6
:204dbd000000000000000000000000000000000000000000000000000000000000000000d6
:0d4ddd0000000000000000000000000000c9
:204dea000001000000000000000000000000000000000000000000000000000000000000a8
:204e0a000000000000000000000000000000000000000140000003000000063c08000000fa
:204e2a00000000000000000000000000000000000000000000000000000000000000000068
:0d4e4a00000000000000000000000000005b
:204e570000000000000000000000000000000000000000000000000000000000000000003b
:204e77000000000000000000000000000000000000000080000001000000003c000000005e
:204e97000000000000000000000000000000000000000000000000000000000000000000fb
:0d4eb70000000000000000000000000000ee
:204ec4000000000000000000000000000000000000000000000000000000000000000000ce
:204ee4000000000000000000000000000000000000000000000000000000000000000000ae
:204f040000000000000000000000000000000000000000000000000000000000000000008d
:0d4f24000000000000000000000000000080
:204f3100000000000000000000000000000000000000000000000000000000000000000060
:204f5100000000000000000000000000000000000000000000000000000000000000000040
:204f7100000000000000000000000000000000000000000000000000000000000000000020
:0d4f91000000000000000000000000000013
:204f9e004000000000000000000000000000000000000000000000000000000000000000b3
:204fbe000000000000000000000000000000000000000000000000000000000000000000d3
:204fde000000000000000000000000000000000000000000000000000000000000000000b3
:0d4ffe0000000000000000000000000000a6
:20500b00000000000000000000000000000000000000000000000000000000000000000085
:20502b00000000000000000000000000000000000000000000000000000000000000000065
:20504b00000000000000000000000000000000000000000000000000000000000000000045
:0d506b000000000000000000000000000038
:20507800000000000000000000000000000000000000000000000000000000000000000018
:205098000000000000000000000000000000000000000000000000000000000000000000f8
:2050b8000000000000000000000000000000000000000000000000000000000000000000d8
:0d50d80000000000000000000000000000cb
:2050e50080000000000000000000000000000000000000000000000000000000000000002b
:2051050000000000000000000000000000000000000000000000000000000000000000008a
:2051250000000000000000000000000000000000000000000000000000000000000000006a
:0d514500000000000000000000000000005d
:205152008000000000000000000000000000000000000000000000000000000000000000bd
:2051720000000000000000000000000000000000000000000000000000000000000000001d
:205192000000000000000000000000000000000000000000000000000100000000000000fc
:0d51b20000000000000000000000000000f0
:2051bf000000000000000000000000000000000000000000000000000000000000000000d0
:2051df000000000000000000000000000000000000000000000000000000000000000000b0
:2051ff0000000000000000000000000000000000000000000000000001000000000000008f
:0d521f000000000000000000000000000082
:20522c00400000000000000000000000000000000000000000000000000000000000000022
:20524c00000000000000000000000000000000000000000000000000000000000000000042
:20526c00000000000000000000000000000000000000000000000000000000000000000022
:0d528c000000000000000001c604af540047
:205299000002000000000000000000000000000000000000000000000000000000000000f3
:2052b9000000000000000000000000000000000000000000000000000000000000000000d5
:2052d9000000000000000000000000000000000000000000000000000000000000000000b5
:0d52f9000000000000000000227c05000005
:20530600000000000000000000000000000000000000000000000000000000000000000087
:20532600000000000000000000000000000000000000000000000000000000000000000067
:205346000000000000000000000000000000000000000000000000000a0000000000002815
:0d5366000000153bd480a000001e9406003e
:2053730080000000000000000000000000000000000000000000000000000000000000009a
:205393000000000000000000000000000000000000000000000000000000000000000000fa
:2053b3000000000000000000000000000000000000000000000000000800000000000020b2
:0d53d3000000d5c2800080c0000dd4a000f5
:2053e00080000000000000000000000000000000000000000000000000000000000000002d
:2054000000000000000000000000000000000000000000000000000000000000000000008c
:20542000000000000000000000000000000000000000000000000000000000680000000004
:0d5440000001a000000000020000000000bc
:20544d0000000000000000000000000000000000000000000000000000000000000000003f
:20546d0000000000000000000000000000000000000000000000000000000000000000001f
:20548d000000000000000000000000000000000000000000000000000000004000000000bf
:0d54ad0000f000000000000042c000000000
:2054ba000001000000000000000000000000000000000000000000000000000000000000d1
:2054da000000000000000000000000000000000000000000000000000000000000000000b2
:2054fa0000000000000000000000000000000000000000000000000000000001caa54000e2
:0d551a0000800f7281000000001e8404005c
:20552700000000000000000000000000000000000000000000000000000000000000000064
:20554700000000000000000000000000000000000000000000000000000000000000000044
:2055670000000000000000000000000000000000000000000000000000000001f0550000de
:0d55870000d005c3d40000000025b4a00032
:205594000000000000000000000000000000000000000000000000000000000000000000f7
:2055b4000000000000000000000000000000000000000000000000000000000000000000d7
:2055d4000000000000000000000000000000000000000000000000000000000000000000b7
:0d55f4000001c00000000000600000000089
:20560100000000000000000000000000000000000000000000000000000000000000000089
:20562100000000000000000000000000000000000000000000000000000000000000000069
:20564100000000000000000000000000000000000000000000000000000040000000000009
:0d566100000100000000000000000000003b
:20566e004000000000000000000000000000000000000000000000000000000000000000dc
:20568e000000000000000000000000000000000000000000000000000000000000000000fc
:2056ae000000000000000000000000000000000000000000000000000000000000000000dc
:0d56ce00000000000000000003800000004c
:2056db000000000000000000000000000000000000000000000000000000000000000000af
:2056fb0000000000000000000000000000000000000000000000000000000000000000008f
:20571b0000000000000000000000000000000000000000000000000000000000000000006e
:0d573b000000d00000000000000000000091
:20574800000000000000000000000000000000000000000000000000000000000000000041
:20576800000000000000000000000000000000000000000000000000000000000000000021
:205788000000000000000000000000000000000000000000000000000100006000000000a0
:0d57a80000398b7ac10000000600000000ef
:2057b500800000000000000000000000000000000000000000000000000000000000000054
:2057d5000000000000000000000000000000000000000000000000000000000000000000b4
:2057f50000000000000000000000000000000000000000000000000000002c000000000068
:0d581500000809fbc80000000000000000b2
:205822008000000000000000000000000000000000000000000000000000000000000000e6
:20584200000000000000000000000000000000000000000000000000000000000000000046
:20586200000000000000000000000000000000000000000000000000000000000000000026
:0d5882000000100000000001c00000000048
:20588f000000000000000000000000000000000000000000000000000000000000000000f9
:2058af000000000000000000000000000000000000000000000000000000000000000000d9
:2058cf000000000000000000000000000000000000000000000000000000000000000000b9
:0d58ef00000080000000000000000000002c
:2058fc0000000000000000000000000000000000000000000000000000000000000000008c
:20591c0000000000000000000000000000000000000000000000000000000000000000006b
:20593c00000000000000000000000000000000000000000000000000000000017af540801b
:0d595c000000bdbbc1000000000000000005
:2059690000000000000000000000000000000000000000000000000000000000000000001e
:205989000000000000000000000000000000000000000000000000000000000000000000fe
:2059a90000000000000000000000000000000000000000000000000000000003dc8100007e
:0d59c9000001e7a78800000002c0000000f8
:2059d6000000000000000000000000000000000000000000000000000000000000000000b1
:2059f600000000000000000000000000000000000000000000000000000000000000000091
:205a16000000000000000000000000000000000000000000000000000a000000000000283e
:0d5a36000000e0000000a0000056ea14008f
:205a4300000000000000000000000000000000000000000000000000000000000000000043
:205a6300000000000000000000000000000000000000000000000000000000000000000023
:205a83000000000000000000000000000000000000000000000000000800000000000020db
:0d5aa30000700000000080000295b570103a
:205ab0000000000000000000000000000000000000000000000000000000000000000000d6
:205ad0000000000000000000000000000000000000000000000000000000000000000000b6
:205af00000000000000000000000000000000000000000000000000004000078000000001a
:0d5b10008001a5ae91004002069eef5400fa
:205b1d00000000000000000000000000000000000000000000000000000000000000000068
:205b3d00000000000000000000000000000000000000000000000000000000000000000048
:205b5d000000000000000000000000000000000000000000000000000c00004000000000dc
:0d5b7d0000310ba368004001c3feb810000a
:205b8a000000000000000000000000000000000000000000000000000000000000000000fb
:205baa000000000000000000000000000000000000000000000000000000000000000000db
:205bca00000000000000000000000000000000000000000000000000000020040000000097
:0d5bea0000018d7a0d0000006040000000f9
:205bf70000000000000000000000000000000000000000000000000000000000000000008e
:205c170000000000000000000000000000000000000000000000000000000000000000006d
:205c37000000000000000000000000000000000000000000000000000000342400000000f5
:0d5c57000000edb78c00000023800000006d
:205c6400000000000000000000000000000000000000000000000000000000000000000020
:205c8400000000000000000000000000000000000000000000000000000000000000000000
:205ca4000000000000000000000000000000000000000000000000000000200000000000c0
:0d5cc400000190000000000006b6cb560065
:205cd1000000000000000000000000000000000000000000000000000000000000000000b3
:205cf100000000000000000000000000000000000000000000000000000000000000000093
:205d110000000000000000000000000000000000000000000000000000001400000000005e
:0d5d310000008000000000000027f62000a8
:205d3e00000000000000000000000000000000000000000000000000000000000000000045
:205d5e00000000000000000000000000000000000000000000000000000000000000000025
:205d7e0000000000000000000000000000000000000000000000000000a000000000000065
:0d5d9e00000000000000000366800000000f
:205dab000000000000000000000000000000000000000000000000000000000000000000d8
:205dcb000000000000000000000000000000000000000000000000000000000000000000b8
:205deb00000000000000000000000000000000000000000000000000004000000000000058
:0d5e0b000000000000000001400000000049
:205e180000000000000000000000000000000000000000000000000000000000000000006a
:205e380000000000000000000000000000000000000000000000000000000000000000004a
:205e5800000000000000000000000000000000000000000000000000000000280000000002
:0d5e780000800963c4000042028fdf540067
:205e85000000000000000000000000000000000000000000000000000000000000000000fd
:205ea5000000000000000000000000000000000000000000000000000000000000000000dd
:205ec5000000000000000000000000000000000000000000000000000000000000000000bd
:0d5ee50000100df544000001443ec81010ef
:205ef200000000000000000000000000000000000000000000000000000000000000000090
:205f120000000000000000000000000000000000000000000000000000000000000000006f
:205f320000000000000000000000000000000000000000000000000000000000000000004f
:0d5f520000100feb450000000040000000b3
:205f5f00000000000000000000000000000000000000000000000000000000000000000022
:205f7f00000000000000000000000000000000000000000000000000000000000000000002
:205f9f000000000000000000000000000000000000000000000000000000000000000000e2
:0d5fbf0000000d6bc000000003400000005a
:205fcc000000000000000000000000000000000000000000000000000000000000000000b5
:205fec00000000000000000000000000000000000000000000000000000000000000000095
:20600c00000000000000000000000000000000000000000000000000000000017c004001b6
:0d602c000081a16b8d000001c68086500030
:20603900000000000000000000000000000000000000000000000000000000000000000047
:20605900000000000000000000000000000000000000000000000000000000000000000027
:206079000000000000000000000000000000000000000000000000000000000350050002ad
:0d60990080f1c9f10c0000002035a9a00025
:2060a6000000000000000000000000000000000000000000000000000000000000000000da
:2060c6000000000000000000000000000000000000000000000000000000000000000000ba
:2060e6000000000000000000000000000000000000000000000000000a0000000000002868
:0d6106000000a7ed0102a000069fa7702079
:2061130000000000000000000000000000000000000000000000000000000000000000006c
:2061330000000000000000000000000000000000000000000000000000000000000000004c
:2061530000000000000000000000000000000000000000000000000008003c0000000020c8
:0d6173000001036528008000002f0dd00002
:206180000000000000000000000000000000000000000000000000000000000000000000ff
:2061a0000000000000000000000000000000000000000000000000000000000000000000df
:2061c000000000000000000000000000000000000000000000000000000020380000000067
:0d61e00000798ff900000003660190300087
:2061ed00000000000000000000000000000000000000000000000000000000000000000092
:20620d00000000000000000000000000000000000000000000000000000000000000000071
:20622d0000000000000000000000000000000000000000000000000000000400000000004d
:0d624d0000f00f60800000006241d03004be
:20625a00000000000000000000000000000000000000000000000000000000000000000024
:20627a00000000000000000000000000000000000000000000000000000000000000000004
:20629a000000000000000000000000000000000000002000000000000000000000000000c4
:0d62ba000081ab781da00001c615a0542086
:2062c7000000000000000000000000000000000000000000000000000000000000000000b7
:2062e700000000000000000000000000000000000000000000000000000000000000000097
:2063070000000000000000000000000000000000000010000000000000003c00000000002a
:0d6327000010fba8082000e0001600600038
:20633400000000000000000000000000000000000000000000000000000000000000000049
:20635400000000000000000000000000000000000000000000000000000000000000000029
:20637400000000000000000000000000000000000000000000000000000000000000000009
:0d6394000099f5ebc5000000068400000034
:2063a1000000000000000000000000000000000000000000000000000000000000000000dc
:2063c1000000000000000000000000000000000000000000000000000000000000000000bc
:2063e10000000000000000000000000000000000000000000000000000000000000000009c
:0d6401000010a9a9c000000800140ff00051
:20640e0000000000000000000000000000000000000000000000000000000000000000006e
:20642e0000000000000000000000000000000000000000000000000000000000000000004e
:20644e000000000000000000000000000000000000000000000000000000006800000000c6
:0d646e000001a92f30000000005fcf30209a
:20647b00000000000000000000000000000000000000000000000000000000000000000001
:20649b000000000000000000000000000000000000000000000000000000000000000000e1
:2064bb000000000000000000000000000000000000000000000000000000000000000000c1
:0d64db000000076c0000000002270ff00019
:2064e800000000000000000000000000000000000000000000000000000000000000000094
:20650800000000000000000000000000000000000000000000000000000000000000000073
:20652800000000000000000000000000000000000000000000000000000000000000000053
:0d65480004581830040800000006a0a6004a
:20655500000000000000000000000000000000000000000000000000000000000000000026
:20657500000000000000000000000000000000000000000000000000000000000000000006
:206595000000000000000000000000000000000000000000000000000000000000000001e5
:0d65b50020008f4008000000000300a2003d
:2065c2000000000000000000000000000000000000000000000000000000000000000000b9
:2065e200000000000000000000000000000000000000000000000000000000000000000099
:206602000000000000000000000000000000000000000000000000000000000159b5000069
:0d662200009197bb9d0800000680a5500068
:20662f0000000000000000000000000000000000000000000000000000000000000000004b
:20664f0000000000000000000000000000000000000000000000000000000000000000002b
:20666f00000000000000000000000000000000000000000000000000000000016dff20403e
:0d668f0000f0af03bc810a0000240aa00047
:20669c000600000000000000000000000000000000000000000000000000000000000000d8
:2066bc000000000000000000000000000000000000000000000000000000000000000000be
:2066dc00015bf770000000000000000000003cb5040000000000000000001e0000000000c8
:0d66fc000000100000000000000000000081
:20670900000000000000000000000000000000000000000000000000000000000000000070
:20672900000000000000000000000000000000000000000000000000000000000000000050
:206749000349ff30000000000000000000002c84200000000000000000002e0000000000b7
:0d6769000000900000000000024000000051
:206776000000000000000000000000000000000000000000000000060000000000000000fd
:2067960000000000000000000000000000000000000000000000000000000000000a0000d9
:2067b6000000000000000000000000a000001caa56000000000000000a0000285d404028d0
:0d67d600003000000000a0000000000000e6
:2067e300000000000000000000000000000000000000000000000000000000000000000096
:2068030000000000000000000000000000000000000000000000000000000000000800006d
:206823002c000000000000000000008003c01505500000000000000008000000d958002023
:0d6843003050000000008000030000000045
:20685000000000000000000000000000000000000000000000000000000000000000000028
:20687000000000000000000000000000000000000000000000000000000000000000000008
:20689000280000000000000000000000020380000000000000000000000014000000001017
:0d68b0000000a00000000000007cfd1400ae
:2068bd000000000000000000000000000000000000000000000000000000000000000000bb
:2068dd00000000000000000000000000000000000000000000000000000000000000003467
:2068fd004000000000000000000000000040000000000040000000000000020000000010a9
:0d691d00005000000000000003b5af0000b6
:20692a0000000000000000000000000000000000000000000000000000000000000000004d
:20694a0000000000000000000000000000000000000000000000000000000000000000002d
:20696a00000000000000000000000000000000000000000000000000000100000000000408
:0d698a00000000000000004046000000007a
:206997000000000000000000000000000000000000000000000000000000000000000000e0
:2069b70000000000000000000000000000000000000000000000000000000000000000348c
:2069d70000000000000000000000000000000000000000000000000000000000000000049c
:0d69f700000000000000000024000000006f
:206a0400000000000000000000000000000000000000000000000000000000000000000072
:206a2400000000000000000000000000000000000000000000000000000000000000000052
:206a440000000000000000000000000000000000000000000000000000a006040000000088
:0d6a64000000000000000005c00000000060
:206a7100000000000000000000000000000000000000000000000000000000000000000005
:206a91000000000000000000000000000000000000000000000000000000000000000000e5
:206ab1000000000000000000000000001000000000000000000000000041403c00000000f8
:0d6ad1000000000000000008200000000090
:206ade00000000000000000000000000000000000000000000000000000000000000000098
:206afe00000000000000000000000000000000000000004000000000000000000000000038
:206b1e00000000000000000000000000000000000000000000000000000000040000000053
:0d6b3e00005800000000000060368e54007a
:206b4b0000000000000000000000000000000000000000000000000000000000000000002a
:206b6b0000000000000000000000000000000000000000800000000000000000000000008a
:206b8b0000000000000000000000000000024000000000000000000000000c30000000006c
:0d6bab000000000000000000000fc5800089
:206bb8000000000000000000000000000000000000000000000000000000000000000000bd
:206bd80000000000000000000000000000000000000000000000000000000000000000009d
:206bf800000000000000000000000000026000000000000000000000000000007f5040000c
:0d6c180002100567c40000000640000000e7
:206c250000000000000000000000000000000000000000000000000000000000000000004f
:206c450000000000000000000000000000000000000000000000000000000000000000002f
:206c650000000000000000000000000003c000000000000000000000000000007c8100004f
:0d6c850004080d22880000024600000000f7
:206c92000000000000000000000000000000000000000000000000000000000000000000e2
:206cb2000000000000000000000000000000000000000200000000000000000000000000c0
:206cd20000000000040000000000000000000000000000000000000000000004caf50000db
:0d6cf20000000f2b15080000001d8f100082
:206cff00000000000000000000000000000000000000000000000000000000000000000075
:206d1f00000000000000000000000000000000000000000000000000000000000000000054
:206d3f000000000004000000000000000000000000000000000000000000002060a0080008
:0d6d5f000000034324000000003fb5108039
:206d6c004000000000000000000000000000000000000000000000000000000000000000c7
:206d8c000000000000000000000000000000000000000000000000000000000000000020c7
:206dac00016cf54000000000000000000000000000000000000000000000143800000000d9
:0d6dcc0000000000000000000000000000ba
:206dd900000200000000000000000000000000000000000000000000000000000000000098
:206df900000000000000000000000000000000000000000000000000000000000000000476
:206e190000400a0000000000000000000000000000000000000000000000004000000000cf
:0d6e3900000000000000000000000000004c
:206e460000000000000000000000000000000000000000000000000000000000000000002c
:206e660000000000000000000000000000000783c02000000000000000000000000a000098
:206e8600035cf70000000000000000000000000000000000000000000a000001dca54000ca
:0d6ea60000000000000000000000000000df
:206eb30080000000000000000000000000000000000000000000000000000000000000003f
:206ed30000000000000000000000000000000003c0000000000000000000000000080000d4
:206ef300017aff000000000000000000000000000000000000000000080000285055000030
:0d6f13000000000000000000000000000071
:206f20008000000000000000000000000000000000000000000000000000000000000000d1
:206f4000000000000000000000000000000000000000000000000000000000000000002011
:206f6000601afc020000000000000000000000000000000000000000000000600000000039
:0d6f80000000000000000000000000000004
:206f8d000000000000000000000000000000000000000000000000000000000000000000e4
:206fad000000000000000000000000000000000000000000000000000000000000000004c0
:206fcd000000fc0000000000000000000000000000000000000000000000000000000000a8
:0d6fed000000000000000000000000000097
:206ffa00000100000000000000000000000000000000000000000000000000000000000076
:20701a00000000000000000000000000000000000000000000000000000000000000002036
:20703a00015cad42000000000000000000000000000000000000000000003c01ea50400033
:0d705a000000000000000000000000000029
:20706700000000000000000000000000000000000000000000000000000000000000000009
:207087000000000000000000000000000000000000000000000000000000000000000004e5
:2070a7000170a100000000000000000000000000000000000000000000000601f981000036
:0d70c70000000000000000000000000000bc
:2070d40000000000000000000000000000000000000000000000000000000000000000009c
:2070f400000000000000000000000000000000000000000000000000000000000000000676
:20711400016c5540000000000000000000000000000000000000000000000003db104080ab
:0d713400000000000000000000000000004e
:2071410000000000000000000000000000000000000000000000000000000000000000002e
:2071610000000000000000000000000000000000000000000000000000000000000000000e
:20718100000055000000000000000004000000000000000000000000000000014f520000f3
:0d71a10000000000000000000000000000e1
:2071ae00400000000000000000000000000000000000000000000000000000000000000081
:2071ce000000000000000000000000000000000000000000000000000000000000000000a1
:2071ee0004000000000000000000000000000000000000000000000000000602f8a040009d
:0d720e000000000000000000000000000073
:20721b00000000000000000000000000000000000000000000000000000000000000000053
:20723b00000000000000000000000000000000000000000000000000000000000000000033
:20725b002000000000000000000000000000000000000000000000000000003cf0fa0000cd
:0d727b0000000000000008000000000000fe
:207288000000000000000000000000000000000000000000000000000000000000000000e6
:2072a8000000000000000000000000000000000000000000000000000000000000000000c6
:2072c800036cb540000000000000000000000000000000000000000000000600000000003c
:0d72e8000000000000000000000000000099
:2072f5008000000000000000000000000000000000000000000000000000000000000000f9
:20731500000000000000000000000000000000000000000000000000000000000000000058
:2073350002c84a00000000000000000000000000000000000000000000001c000000000008
:0d735500000000000000000000000000002b
:2073620080000000000000000000000000000000000000000000000000000000000000008b
:207382000000000000000000000000000100000000000000000000000000000000000000ea
:2073a2000000000000000000000000000000000000000000000000000000002000000000ab
:0d73c20000000000000000000000000000be
:2073cf0000000000000000000000000000000000000000000000000000000000000000009e
:2073ef000000000000000000000000000080000000000000000000000000000000000000fe
:20740f0000000000000000000000000000000000000000000000000000000000000000005d
:0d742f00000000000000000000000000024e
:02743c0000004e
:02743e0011013a
:02744000010148
:20744200000000000000000000000000000000002000000000000080000000000000001e6c
:20746200000000000800000000000020000000000000800000000000000000000000000062
:207482000000000002000000000000000000000000000000000000000000000000000000e8
:0d74a20000000000000008000000000000d5
:2074af000000000000000000000000000000000000000000000000000d00000000000002ae
:2074cf0000000000000000000000000000000000000000000000000000000000000000009d
:2074ef0000000000000000000000000000000000000000000000000000000000000000007d
:0d750f00000000000000000000000000006f
:20751c000000000000000000000000000000000010000000000000400000000000000000ff
:20753c000000000004000000000000100000000000004000000000000000000000000000db
:20755c0000000000010000000000000000000000000000000000000000000000000000000e
:0d757c0000000000000004000000000000fe
:207589000000000000000000000000000000000000000000000000000000000000000000e2
:2075a90000000000000000000000000000000000000000058000000000000000000000003d
:2075c9000000000000000000000000000000000000000000000000000000000000000000a2
:0d75e9000000000000000000000000000095
:2075f6000000000000000000000000000000000020000000000000800000030000000000d2
:2076160000000000080000001000002000000000000080000001000000000000000000009b
:20763600000000000200000000000000000000000000000000000000000000000000000032
:0d765600000000000000080000001000000f
:207663000000000000000000000000000000000000000000400000000000030000000000c4
:20768300000000000000000010000000000000400000000000010000000000000000000096
:2076a3000000000000000000040000000000000000000000000000000000000000000000c3
:0d76c30000000000000000000000100000aa
:2076d00000000000000000000000000000000000000000000000000000000000000000009a
:2076f00000000000000000100000000000000000000000000000000000000000000000006a
:20771000000000000000000000000000000000000000000000000000000000000000000059
:0d773000000000000000000000000000004c
:20773d0000000000000000000000000000000000000000000000000000000000000000002c
:20775d000000000000000000000000000160000000000000000000000000000000000000ab
:20777d000000000000000000000000000000000000000000000000000000000000000000ec
:0d779d0000000000000000000000000000df
:2077aa000000000000000000000000000000000000000000000000000002000000000000bd
:2077ca00080000000000002000000000000081800000000002000000000000000000000074
:2077ea0000000000000000000000000000000000000000000000000000000000000000007f
:0d780a000000000000000000000000000071
:20781700000000000000000000000000000000000000000000000000000000000000000051
:20783700000000000000000000000000000000000000000000000000000000000000000031
:20785700000000000000000000000000000000000000000000000000000000000000000011
:0d7877000000000000000000000000000004
:207884000000000000000000000000000000000000000000000000000000010000000000e3
:2078a400000c0000040008000000000000000040000000000001000000000000000000006b
:2078c4000000000000000000000000000000000000000000000000000000000000000000a4
:0d78e4000000000000000000000000000097
:2078f1000000000000000000000000000000000000000000000000800000000000020000f5
:20791100000c00000000500000000020000000800000800580030000000000000000000052
:20793100000000000000000000000000000000000000000000000000000000000000000036
:0d79510000000000000000005800000000d1
:20795e00000000000000000000000000000000000000000000000000000000000000000009
:20797e000000000000000000000000000000000000000000000000000000010000000000e8
:20799e000000000000000000000000000000000000000000000100000000000000000000c8
:0d79be0000000000000000000000000000bc
:2079cb0000000000000000000000000000000000000000000000004000000000000100005b
:2079eb00000000000400000000000010000000000000400000000000000000000000000028
:207a0b0000000000000000000000000000000000000000000000000000000000000000005b
:0d7a2b00000000000000000000000000004e
:207a38000000000000000000000000000000000000002040000000000f01000000000000be
:207a58000000000000000010000000000000400000000000010000000000000000000000bd
:207a78000000000000000004000000000000000000000000000000000000000000000000ea
:0d7a980000000000000000000010000000d1
:207aa500000000000000000000000000000000000001c0000000008000000000000200007e
:207ac5000000000000000000000000200160000000008000000000000000000000000000a0
:207ae50000000000000016000000000000000000000000000000000000000000000000006b
:0d7b05000000000000000000000000000073
:207b120000000000000000000000000000000000000000000000000000000000000038001b
:207b3200000000000000000000000000000000000000000000000000000000000000000033
:207b5200000000000000000000000000000000000000000000000000000000000000000013
:0d7b72000000000000000000000000000006
:207b7f000000000000000000000000000000000000000000000000000000000000000000e6
:207b9f000000000000000000000000000000000000000000000000000000000000000000c6
:207bbf000000000000000000000000000000000000000000000000000000000000000000a6
:0d7bdf000000000000000000000000000099
:207bec00000000000000000000000000000000000000000000000000000000000000000079
:207c0c00000000000000000000000000000000000000000000000000000000000000000157
:207c2c00000000000000000000000000000000000000000000000000000000000000000038
:0d7c4c00000000000000000000000000002b
:207c590000000000000000000000000000000000000000000000000000000000000000000b
:207c79000000000000000000000000000000000000000000000000000000000000000000eb
:207c99000000000000000000000000000000000000000000000000000000000000000000cb
:0d7cb90000000000000000000000000000be
:207cc60000000000000000000000000000000000000000000000000000000000000000009e
:207ce60000000000000000000000000000000000000000000000000000000000000000007e
:207d060000000000000000000000000000000000000000000000000000000000000000005d
:0d7d26000000000000000000000000000050
:207d3300000000000000000000000000000000000000000000000000000000000000000030
:207d5300000000000000000000000000000000000000000000000000000000000000000010
:207d73000000000000000000000000000000000000000000000000000000000000000000f0
:0d7d930000000000000000000000000000e3
:207da0000000000000000000000000000000000000000000000000000000000000000000c3
:207dc0000000000000000000000000000000000000000000000000000000000000000000a3
:207de000000000000000000000000000000000000000000000000000000000000000000083
:0d7e00000000000000000000000000000075
:207e0d00000000000000000000000000000000000000000000000000000000000000000055
:207e2d00000000000000000000000000000000000000000000000000000000000000000035
:207e4d00000000000000000000000000000000000000000000000000000000000000000015
:0d7e6d000000000000000000000000000008
:207e7a000000000000000000000000000000000000000000000000000000000000000000e8
:207e9a000000000000000000000000000000000000000000000000000000000000000000c8
:207eba000000000000000000000000000000000000000000000000000000000000000000a8
:0d7eda00000000000000000000000000009b
:207ee70000000000000000000000000000000000000000000000000000000000000000007b
:207f07000000000000000000000000000000000000000000000000018000000000000000d9
:207f270000000000000000000000000000000000000000000000000000000000000000003a
:0d7f4700000000000000000000000000002d
:207f540000000000000000000000000000000000000000000000000000000000000000000d
:207f74000000000000000000000000000000000000000000000000000000000000000000ed
:2086fe0000000000000000000000000000000000028000000000004000000000000000009a
:20871e0000000000000000000000000000000000000000000000000000000000000000003b
:20873e0000000000000000000000000000000000000000000000000000000000000000001b
:0d875e00000000000000000000000000000e
:20876b000000000000000000000000000000000000000000000000200000000000000000ce
:20878b000000000000000000000000000000000000000000000000000000000000000000ce
:2087ab000000000000000000000000000000000000000000000000000000000000000000ae
:0d87cb0000000000000000000000000000a1
:2087d800000000000000000000000000000000000000000000000000000000000000000081
:2087f800000000000000000000000000000000000000000000000000000000000000000061
:20881800000000000000000000000000000000000000000000000000000000000000000040
:0d8838000000000000000000000000000033
:20884500000000000000000000000000000000000000000000000000000000000000000013
:208865000000000000000000000000000000000000000000000000000000000000000000f3
:208885000000000000000000000000000000000000000000000000000000000000000000d3
:0d88a50000000000000000000000000000c6
:2088b2000000000000000000000000000000000000000000000000000000000000000000a6
:2088d200000000000000000000000000000000000000000000000000000000000000000086
:2088f200000000000000000000000000000000000000000000000000000000000000000066
:0d8912000000000000000000000000000058
:20891f008000000000000000000000000000000000000000000000000000000000000000b8
:20893f00000000000000000000000000000000000000000000000000000000000000000018
:20895f000000000000000000000000000000000000000000000000000000000000000000f8
:0d897f0000000000000000000000000000eb
:20898c0080000000000000000000000000000000000000000000000000000000000000004b
:2089ac000000000000000000000000000000000000000000000000000000000000000000ab
:2089cc0000000000000000000000000000000000000000000000000000000000000000008b
:0d89ec00000000000000000000000000007e
:2089f90000000000000000000000000000000000000000000000000000000000000000005e
:208a190000000000000000000000000000000000000000000000000000000000000000003d
:208a390000000000000000000000000000000000000000000000000000000000000000001d
:0d8a59000000000000000000000000000010
:208a66000000000000000000000000000000000000000000000000000000000000000000f0
:208a86000000000000000000000000000000000000000000000000000000000000000000d0
:208aa6000000000000000000000000000000000000000000000000000000000000000000b0
:0d8ac60000000000000000000000000000a3
:208ad300400000000000000000000000000000000000000000000000000000000000000043
:208af300000000000000000000000000000000000000000000000000000000000000000063
:208b1300000000000000000000000000000000000000000000000000000000000000000042
:0d8b33000000000000000000000000000035
:208b4000000000000000000000000000000000000000000000000000000000000000000015
:208b60000000000000000000000000000000000000000000000000000000000000000000f5
:208b80000000000000000000000000000000000000000000000000000000000000000000d5
:0d8ba00000000000000000000000000000c8
:208bad000000000000000000000000000000000000000000000000000000000000000000a8
:208bcd00000000000000000000000000000000000000000000000000000000000000000088
:208bed00000000000000000000000000000000000000000000000000000000000000000068
:0d8c0d00000000000000000000000000005a
:208c1a0000000000000000000000000000000000000000000000000000000000000000003a
:208c3a0000000000000000000000000000000000000000000000000000000000000000001a
:208c5a000000000000000000000000000000000000000000000000000000000000000000fa
:0d8c7a0000000000000000000000000000ed
:208c87000001000000000000000000000000000000000000000000000000000000000000cc
:208ca7000000000000000000000000000000000000000000000000000000000000000000ad
:208cc70000000000000000000000000000000000000000000000000000000000000000008d
:0d8ce7000000000000000000000000000080
:208cf400000000000000000000000000000000000000000000000000000000000000000060
:208d140000000000000000000000000000000000000000000000000000000000000000003f
:208d340000000000000000000000000000000000000000000000000000000000000000001f
:0d8d54000000000000000000000000000012
:208d6100800000000000000000000000000000000000000000000000000000000000000072
:208d81000000000000000000000000000000000000000000000000000000000000000000d2
:208da1000000000000000000000000000000000000000000000000000000000000000000b2
:0d8dc10000000000000000000000000000a5
:208dce00800000000000000000000000000000000000000000000000000000000000000005
:208dee00000000000000000000000000000000000000000000000000000000000000000065
:208e0e00000000000000000000000000000000000000000000000000000000000000000044
:0d8e2e000000000000000000000000000037
:208e3b00000000000000000000000000000000000000000000000000000000000000000017
:208e5b000000000000000000000000280000000000000000000000000000000000000000cf
:208e7b000000000000000000000000000000000000000000000000000000000000000000d7
:0d8e9b0000000000000000000000000000ca
:208ea8000002000000000000000000000000000000000000000000000000000000000000a8
:208ec80000000000000000000000000000000000000000000000000000000000000000008a
:208ee80000000000000000000000000000000000000000000000000000000000000000006a
:0d8f0800000000000000000000000000005c
:208f15004000000000000000000000000000000000000000000000000000000000000000fc
:208f350000000000000000000000000000000000000000000000000000000000000000001c
:208f55000000000000000000000000000000000000000000000000000000000000000000fc
:0d8f750000000000000000000000000000ef
:208f82000000000000000000000000000000000000000000000000000000000000000000cf
:20960500000000001000000000000000000000000000000000000000000000000000000035
:20962500000000000000000000000000000000000000000000000000000000000000000025
:0d9645000000000000000000000000000018
:209652000000000000000000000000000000000000000000000000000000000000000000f8
:209672000000000000000000000000000000000000000000000000000000000000000000d8
:209692000000000000000000000000000000000000000000000000000000000000000000b8
:0d96b20000000000000000000000000000ab
:2096bf0080000000000000000000000000000000000000000000000000000000000000000b
:2096df0000000000000000000000000000000000000000000000000000000000000000006b
:2096ff0000000000000000000000000000000000000000000000000000000000000000004b
:0d971f00000000000000000000000000003d
:20972c0080000000000000000000000000000000000000000000000000000000000000009d
:20974c000000000000000000000000000000000000000000000000000000000000000000fd
:20976c000000000000000000000000000000000000000000000000000000000000000000dd
:0d978c0000000000000000000000000000d0
:209799000000000000000000000000000000000000000000000000000000000000000000b0
:2097b900000000000000000000000000000000000000000000000000000000000000000090
:2097d900000000000000000000000000000000000000000000000000000000000000000070
:0d97f9000000000000000000000000000063
:20980600000000000000000000000000000000000000000000000000000000000000000042
:20982600000000000000000000000000000000000000000000000000000000000000000022
:20984600000000000000000000000000000000000000000000000000000000000000000002
:0d98660000000000000000000000000000f5
:20987300400000000000000000000000000000000000000000000000000000000000000095
:209893000000000000000000000000000000000000000000000000000000000000000000b5
:2098b300000000000000000000000000000000000000000000000000000000000000000095
:0d98d3000000000000000000000000000088
:2098e000000000000000000000000000000000000000000000000000000000000000000068
:20990000000000000000000000000000000000000000000000000000000000000000000047
:20992000000000000000000000000000000000000000000000000000000000000000000027
:0d994000000000000000000000000000001a
:20994d000000000000000000000000000000000000000000000000000000000000000000fa
:20996d000000000000000000000000000000000000000000000000000000000000000000da
:20998d000000000000000000000000000000000000000000000000000000000000000000ba
:0d99ad0000000000000000000000000000ad
:2099ba0000000000000000000000000000000000000000000000000000000000000000008d
:2099da0000000000000000000000000000000000000000000000000000000000000000006d
:2099fa0000000000000000000000000000000000000000000000000000000000000000004d
:0d9a1a00000000000000000000000000003f
:209a270000010000000000000000000000000000000000000000000000000000000000001e
:209a47000000000000000000000000000000000000000000000000000000000000000000ff
:209a67000000000000000000000000000000000000000000000000000000000000000000df
:0d9a870000000000000000000000000000d2
:209a94000000000000000000000000000000000000000000000000000000000000000000b2
:209ab400000000000000000000000000000000000000000000000000000000000000000092
:209ad400000000000000000000000000000000000000000000000000000000000000000072
:0d9af4000000000000000000000000000065
:209b01008000000000000000000000000000000000000000000000000000000000000000c4
:209b2100000000000000000000000000000000000000000000000000000000000000000024
:209b4100000000000000000000000000000000000000000000000000000000000000000004
:0d9b610000000000000000000000000000f7
:209b6e00800000000000000000000000000000000000000000000000000000000000000057
:209b8e000000000000000000000000000000000000000000000000000000000000000000b7
:209bae00000000000000000000000000000000000000000000000000000000000000000097
:0d9bce00000000000000000000000000008a
:209bdb0000000000000000000000000000000000000000000000000000000000000000006a
:209bfb0000000000000000000000000000000000000000000000000000000000000000004a
:209c1b00000000000000000000000000000000000000000000000000000000000000000029
:0d9c3b00000000000000000000000000001c
:209c48000002000000000000000000000000000000000000000000000000000000000000fa
:209c68000000000000000000000000000000000000000000000000000000000000000000dc
:209c88000000000000000000000000000000000000000000000000000000000000000000bc
:0d9ca80000000000000000000000000000af
:209cb50040000000000000000000000000000000000000000000000000000000000000004f
:209cd50000000000000000000000000000000000000000000000000000000000000000006f
:209cf50000000000000000000000000000000000000000000000000000000000000000004f
:0d9d15000000000000000000000000000041
:209d220000000000000000000000000000000000038000000000004000000000000000045a
:209d4200000000000000000000000000000000000000000000000000000000000000000001
:209d62000000000000000000000000000000000000000000000000000000000000000000e1
:0d9d820000000000000000000000000000d4
:209d8f008000000000000000000000000000000000000000000000a0000000000000000094
:209daf00000000000000000000000000000000000000000000000000000000000000000094
:209dcf00000000000000000000000000000000000000000000000000000000000000000074
:0d9def000000000000000000000000000067
:209dfc008000000000000000000000000000000000000000000000000000000000000000c7
:209e1c00000000000000000000000000000000000000000000000000000000000000000026
:209e3c00000000000000000000000000000000000000000000000000000000000000000006
:0d9e5c0000000000000000000000000000f9
:209e69000000000000000000000000000000000000000000000000000000000000000000d9
