:02000000ff00ff
:080002004c6174746963650030
:17000a00694345637562653220323031372e30382e32373934300069
:16002100506172743a2069434534304858344b2d545131343400f9
:1b003700446174653a2046656220323720323032302032313a34393a34340090
:0200520000ffad
:040054007eaa997e69
:02005800510055
:02005a0001059e
:03005c00920020ef
:03005f00620367d2
:0300620072011018
:0300650082000016
:02006800110085
:02006a00010192
:20006c00000000000000000000000000000000000000000000000040000000000000000034
:20008c00000000000400000000000010000000000000000000000000000000000000000040
:2000ac0000000000010000000000000400000000000000000000000000000000000000012e
:0d00cc000000000000000400000000000023
:2000d900000000000000000000000000000000000000000000000000000000000000000007
:2000f9000000000000000000000000000000000000000000000000000000000000000000e7
:200119000000000000000000000000000000000000000000000000000000000000000000c6
:0d01390000000000000000000000000000b9
:20014600000000000000000000000000000000000000000000000040000000000000000059
:20016600000000000400000000000010000000000000000000000000000000000000000065
:20018600000000000100000000000004000000000000000000000000000000000000000153
:0d01a6000000000000000400000000000048
:2001b30000000000000000000000000000000000000000000000000000000000000000002c
:2001d30000000000000000000000000000000000000000000000000000000000000000000c
:2001f3000000000000000000000000000000000000000000000000000000000000000000ec
:0d02130000000000000000000000000000de
:2002200000000000000000000000000000000000000000000000008000000000000000003e
:20024000000000000800000000000020000000000000000000000000000000000000000076
:20026000000000000200000000000008000000000000000000000000000000000000000272
:0d0280000000000000000800000000000069
:20028d00000000000000000000000000000000000000000000000000000000000000000051
:2002ad00000000000000000000000000000000000000000000000000000000000000000031
:2002cd00000000000000000000000000000000000000000000000000000000000000000011
:0d02ed000000000000000000000000000004
:2002fa000000000000000000000000000000000000000000000000000000000000000000e4
:20031a000000000000000000000000000000000000000000000000000000000000000000c3
:20033a000000000000000000000000000000000000000000000000000000000000000000a3
:0d035a000000000000000000000000000096
:20036700000000000000000000000000000000000000000000000000000000000000000076
:20038700000000000000000000000000000000000000000000000000000000000000000056
:2003a700000000000000000000000000000000000000000000000000000000000000000036
:0d03c7000000000000000000000000000029
:2003d400000000000000000000000000000000000000000000000000000200000000000007
:2003f4000000000000000000000000000000000000000000020000000000000000000000e7
:200414000000000000000000000000000000200000000000000000000000000000000000a8
:0d043400000000000000000000200000009b
:2004410000000000000000000000000000000000000000000000000000000000000000009b
:2004610000000000000000000000000000000000000000000000000000000000000000007b
:2004810000000000000000000000000000000000000000000000000000000000000000005b
:0d04a100000000000000000000000000004e
:2004ae0000000000000000000000000000000000000000000000000000000000000000002e
:2004ce0000000000000000000000000000000000000000000000000000000000000000000e
:2004ee000000000000000000000000000000000000000000000000000000000100000000ed
:0d050e0000000400000000000000000000dc
:20051b00000000000000000000000000000000000000000000000040000000000000000080
:20053b00000000000000000000000000000000000000400000000000000000000000000060
:20055b0000000000000000000000000400000000000000000000300000000000000000004c
:0d057b00000000000000040000000000006f
:20058800000000000000000000000000000000000000000000000000000000000000000053
:2005a800000000000000000000000000000000000000000000000000000000000000000033
:2005c8000000000000000000000000000000000000000001e0000000000000000000000032
:0d05e80000000400000000000010000000f2
:2005f5000000000000000000000000000000000000000000000000400000000000000000a6
:20061500000000000000000000000000000000000000400000000000000000000000000085
:20063500000000000000000000000004000000000000000020000000000000000000000081
:0d0655000000000000000400000000000094
:20066200000000000000000000000000000000000000000000000000000100000000000077
:20068200000000000000001000000000000040000000000000000000000000000000000008
:2006a200000000000000000400000000000010000000000000000000000000000000000024
:0d06c2000000040000000000001000000017
:2006cf0000000000000000000000000000000000000000000000008000000000000000008b
:2006ef0000000000000000000000000000000000000080000000000000000000000000006b
:20070f000000000000000000000000080000000000000000000000000000000200000000c0
:0d072f0000000400000008000000000000b1
:20073c0000000000000000000000000000000000000000000000000000000000000000009d
:20075c0000000000000000000000000000000000000000000000000000000000000000007d
:20077c0000000000000000000000000000000000000000000000000000000000000000005d
:0d079c000000000000000000000000000050
:20169000000000000000000000000000000000000000000000000100000000000000000039
:2016b00000000000000000000000000000000000000000000000000000000000000000001a
:2016d0000000000000000000000000000000000000000000000000000000000000000000fa
:0d16f00000000000000000000000000000ed
:2016fd000000000000000000000000000000000000000000000000000000000000000000cd
:20171d000000000000000000000000000000000000000000000000000000000000000000ac
:20173d0000000000000000000000000000000000000000000000000000000000000000008c
:0d175d00000000000000100000000000006f
:20176a0000000000000000000000000000000000000000000000000000000000000000005f
:20178a0000000000000000000000000000000000000000000000000000000000000000003f
:2017aa0000000000000000000000000000000000000000000000000000000000000000001f
:0d17ca000000000000000000000000000012
:201bac004000000000000000000000000000000000000000000000000000000000000000d9
:201bcc000000000000000000000000000000000000000000000000000000000000000000f9
:201bec000000000000000000000000000000000000000000000000000000000000000000d9
:0d1c0c0000000000000000000000000000cb
:201c19000002000000000000000000000000000000000000000000000000000000000000a9
:201c390000000000000000000000000000000000000000000000000000000000000000008b
:201c590000000000000000000000000000000000000000000000000000000000000000006b
:0d1c7900000000000000000000000000005e
:201c860000000000000000000000000000000000000000000000000000000000000000003e
:201ca60000000000000000000000000000000000000000000000000000000000000000001e
:201cc6000000000000000000000000000000000000000000000000000000000000000000fe
:0d1ce60000000000000000000000000000f1
:201cf300800000000000000000000000000000000000000000000000000000000000000051
:201d13000000000000000000000000000000000000000000000000000000000000000000b0
:201d3300000000000000000000000000000000000000000000000000000000000000000090
:0d1d53000000000000000000000000000083
:201d60008000000000000000000000000000000000000000000000000000000000000000e3
:201d8000000000000000000000000000000000000000000000000000000000000000000043
:201da000000000000000000000000000000000000000000000000000000000000000000023
:0d1dc0000000000000000000000000000016
:201dcd000000000000000000000000000000000000000000000000000000000000000000f6
:201ded000000000000000000000000000000000000000000000000000000000000000000d6
:201e0d000000000000000000000000000000000000000000000000000000000000000000b5
:0d1e2d0000000000000000000000000000a8
:201e3a00000100000000000000000000000000000000000000000000000000000000000087
:201e5a00000000000000000000000000000000000000000000000000000000000000000068
:201e7a00000000000000000000000000000000000000000000000000000000000000000048
:0d1e9a00000000000000000000000000003b
:201ea70000000000000000000000000000000000000000000000000000000000000000001b
:201ec7000000000000000000000000000000000000000000000000000000000000000000fb
:201ee7000000000000000000000000000000000000000000000000000000000000000000db
:0d1f070000000000000000000000000000cd
:201f14000000000000000000000000000000000000000000000000000000000000000000ad
:201f340000000000000000000000000000000000000000000000000000000000000000008d
:201f5400000000000000000000000000000000000000080000000000000000000000000065
:0d1f74000000000000000000000000000060
:201f8100000000000000000000000000000000000000000000000000000000000000000040
:201fa100000000000000000000000000000000000000000000000000000000000000000020
:201fc100000000000000000000000000000000000000000000000000000000000000000000
:0d1fe10000000000000000000000000000f3
:201fee00400000000000000000000000000000000000000000000000000000000000000093
:20200e000000000000000000000000000000000000000000000000000000000000000000b2
:20202e00000000000000000000000000000000000000000000000000000000000000000092
:0d204e000000000000000000000000000085
:20205b00000000000000000000000000000000000000000000000000000000000000000065
:20207b00000000000000000000000000000000000000000000000000000000000000000045
:20209b00000000000000000000000000000000000000000000000000000000000000000025
:0d20bb000000000000000000000000000018
:2020c8000000000000000000000000000000000000000000000000000000000000000000f8
:2020e8000000000000000000000000000000000000000000000000000000000000000000d8
:202108000000000000000000000000000000000000000000000000000000000000000000b7
:0d21280000000000000000000000000000aa
:2021350080000000000000000000000000000000000000000000000000000000000000000a
:2021550000000000000000000000000000000000000000000000000000000000000000006a
:20217500000000000000000000000000000000000000000000000000000001000000000049
:0d219500000000000000000000000000003d
:2021a20080000000000000000000000000000000000000000000000000000000000000009d
:2021c2000000000000000000000000000000000000000000000000000000000000000000fd
:2021e2000000000000000000000000000000000000000000000000000000000000000000dd
:0d22020000000000000000000000000000cf
:20220f000000000000000000000000000000000000000000000000000000000000000000af
:20222f0000000000000000000000000000000000000000000000000000000000000000008f
:20224f0000000000000000000000000000000000000000000000000000000000000000006f
:0d226f000000000000000000000000000062
:20227c00400000000000000000000000000000000000000000000000000000000000000002
:20229c00000000000000000000000000000000000000000000000000000000000000000022
:2022bc00000000000000000000000000000000000000000000000000000000000000000002
:0d22dc0000000000000000000000000000f5
:2022e9000002000000000000000000000000000000000000000000000000000000000000d3
:202309000000000000000000000000000000000000000000000000000000000000000000b4
:20232900000000000000000000000000000000000000000000000000000000000000000094
:0d2349000000000000000000000000000087
:20235600000000000000000000000000000000000000000000000000000000000000000067
:20237600000000000000000000000000000000000000000000000000000000000000000047
:20239600000000000000000000000000000000000000000000000000000000000000000027
:0d23b600000000000000000000000000001a
:2023c30080000000000000000000000000000000000000000000000000000000000000007a
:2023e3000000000000000000000000000000000000000000000000000000000000000000da
:202403000000000000000000000000000000000000000000000000000000000000000000b9
:0d24230000000000000000000000000000ac
:2024300080000000000000000000000000000000000000000000000000000000000000000c
:2024500000000000100000000000000000000000000000000000000000000000000000005c
:2024700000000000000000000000000000000000000000000000000000000000000000004c
:0d249000000000000000000000000000003f
:20249d0000000000000000000000000000000000000000000000000000000000000000001f
:2024bd000000000000000000000000000000000000000000000000000000000000000000ff
:2024dd000000000000000000000000000000000000000000000000000000000000000000df
:0d24fd0000000000000000000000000000d2
:20250a000001000000000000000000000000000000000000000000000000000000000000b0
:20252a00000000000000000000000000000000000000000000000000000000000000000091
:20254a00000000000000000000000000000000000000000000000000000000000000000071
:0d256a000000000000000000000000000064
:20257700000000000000000000000000000000000000000000000000000000000000000044
:20259700000000000000000000000000000000000000000000000000000000000000000024
:2025b700000000000000000000000000000000000000000000000000000000000000000004
:0d25d70000000000000000000000000000f7
:2025e4000000000000000000000000000000000000000000000000000000000000000000d7
:202604000000000000000000000000000000000000000000000000000000000000000000b6
:20262400000000000000000000000000000000000000000000000000000000000000000096
:0d2644000000000000000000000000000089
:20265100000000000000000000000000000000000000000000000000000000000000000069
:20267100000000000000000000000000000000000000000000000000000000000000000049
:20269100000000000000000000000000000000000000000000000000000000000000000029
:0d26b100000000000000000000000000001c
:2026be004000000000000000000000000000000000000000000000000000000000000000bc
:2026de000000000000000000000000000000000000000000000000000000000000000000dc
:2026fe000000000000000000000000000000000000000000000000000000000000000000bc
:0d271e0000000000000000000000000000ae
:20272b0000000000000000000000000000000000000000000000000000000000000000008e
:20274b0000000000000000000000000000000000000000000000000000000000000000006e
:20276b0000000000000000000000000000000000000000000000000000000000000000004e
:0d278b000000000000000000000000000041
:20279800000000000000000000000000000000000000000000000000000000000000000021
:2027b800000000000000000000000000000000000000000000000000000000000000000001
:2027d8000000000000000000000000000000000000000000000000000000000000000000e1
:0d27f80000000000000000000000000000d4
:20280500800000000000000000000000000000000000000000000000000000000000000033
:20282500000000000000000000000000000000000000000000000000000000000000000093
:20284500000000000000000000000000000000000000000000000000000000000000000073
:0d2865000000000000000000000000000066
:202872008000000000000000000000000000000000000000000000000000000000000000c6
:20289200000000000000000000000000000000000000000000000000000000000000000026
:2028b200000000000000000000000000000000000000000000000000000000000000000006
:0d28d20000000000000000000000000000f9
:2028df000000000000000000000000000000000000000000000000000000000000000000d9
:2028ff000000000000000000000000000000000000000000000000000000000000000000b9
:20291f00000000000000000000000000000000000000000000000000000000000000000098
:0d293f00000000000000000000000000008b
:20294c0040000000000000000000000000000000000000000000000000000000000000002b
:20296c0000000000000000000000000000000000000000000000000000000000000000004b
:20298c0000000000000000000000000000000000000000000000000000000000000000002b
:0d29ac00000000000000000000000000001e
:2029b9000002000000000000000000000000000000000000000000000000000000000000fc
:2029d9000000000000000000000000000000000000000000000000000000000000000000de
:2029f9000000000000000000000000000000000000000000000000000000000000000000be
:0d2a190000000000000000000000000000b0
:202a2600000000000000000000000000000000000000000000000000000000000000000090
:202a4600000000000000000000000000000000000000000000000000000000000000000070
:202a6600000000000000000000000000000000000000000000000000000000000000000050
:0d2a86000000000000000000000000000043
:202a93008000000000000000000000000000000000000000000000000000000000000000a3
:202ab300000000000000000000000000000000000000000000000000000000000000000003
:202ad3000000000000000000000000000000000000000000000000000000000000000000e3
:0d2af30000000000000000000000000000d6
:202b0000800000000000000000000000000000000000000000000000000000000000000035
:202b2000000000000000000000000000000000000000000000000000000000000000000095
:202b4000000000000000000000000000000000000000000000000000000000000000000075
:0d2b60000000000000000000000000000068
:202b6d00000000000000000000000000000000000000000000000000000000000000000048
:202b8d00000000000000000000000000000000000000000000000000000000000000000028
:202bad00000000000000000000000000000000000000000000000000000000000000000008
:0d2bcd0000000000000000000000000000fb
:202bda000001000000000000000000000000000000000000000000000000000000000000da
:202bfa000000000000000000000000000000000000000000000000000000000000000000bb
:202c1a0000000000000000000000000000000000000000000000000000000000000000009a
:0d2c3a00000000000000000000000000008d
:202c470000000000000000000000000000000000000000000000000000000000000000006d
:202c670000000000000000000000000000000000000000000000000000000000000000004d
:202c870000000000000000000000000000000000000000000000000000000000000000002d
:0d2ca7000000000000000000000000000020
:202cb400000000000000000000000000000000000000000000000000000000000000000000
:202cd4000000000000000000000000000000000000000000000000000000000000000000e0
:202cf4000000000000000000000000000000000000000000000000000000000000000000c0
:0d2d140000000000000000000000000000b2
:202d2100000000000000000000000000000000000000000000000000000000000000000092
:202d4100000000000000000000000000000000000000000000000000000000000000000072
:202d6100000000000000000000000000000000000000000000000000000000000000000052
:0d2d81000000000000000000000000000045
:202d8e004000000000000000000000000000000000000000000000000000000000000000e5
:202dae00000000000000000000000000000000000000000000000000000000000000000005
:202dce000000000000000000000000000000000000000000000000000000000000000000e5
:0d2dee0000000000000000000000000000d8
:202dfb000000000000000000000000000000000000000000000000000000000000000000b8
:202e1b00000000000000000000000000000000000000000000000000000000000000000097
:202e3b00000000000000000000000000000000000000000000000000000000000000000077
:0d2e5b00000000000000000000000000006a
:202e680000000000000000000000000000000000000000000000000000000000000000004a
:202e880000000000000000000000000000000000000000000000000000000000000000002a
:202ea80000000000000000000000000000000000000000000000000000000000000000000a
:0d2ec80000000000000000000000000000fd
:202ed50080000000000000000000000000000000000000000000000000000000000000005d
:202ef5000000000000000000000000000000000000000000000000000000000000000000bd
:202f150000000000000000000000000000000000000000000000000000000000000000009c
:0d2f3500000000000000000000000000008f
:202f42008000000000000000000000000000000000000000000000000000000000000000ef
:202f620000000000000000000000000000000000000000000000000000000000000000004f
:202f820000000000000000000000000000000000000000000000000000000000000000002f
:0d2fa2000000000000000000000000000022
:202faf00000000000000000000000000000000000000000000000000000000000000000002
:20423e0000000000000000000000000000000000000004000000000000100000000000004c
:0d425e004000000000000100000000000012
:20426b00000000000000000000000000000000000000000000000000000000000000000033
:20428b00000000000000000000000000000000000000000000000000000000000000000013
:2042ab000000000000000000000000000000000000000000000000000000000000000000f3
:0d42cb0000000000000000000000000000e6
:2042d8000000000000000000000000000000000000000000000000000000000000000000c6
:2042f8000000000000000000000000000000000000000000000000000000000000000000a6
:20431800000000000000000000000000000000000000000000000000000000000000000085
:0d4338000000000000000000000000000078
:20434500000000000000000000000000000000000000000000000000000000000000000058
:20436500000000000000000000000000000000000000000000000000000000000000000038
:20438500000000000000000000000000000000000000000000000000000000000000000018
:0d43a500000000000000000000000000000b
:2043b2000000000000000000000000000000000000000000000000000000000000000000eb
:2043d2000000000000000000000000000000000000000000000000000000000000000000cb
:2043f2000000000000000000000000000000000000000000000000000000000000000000ab
:0d441200000000000000000000000000009d
:20441f0000000000000000000000000000000000000000000000000000000000000000007d
:20443f0000000000000000000000000000000000000000000000000000000000000000005d
:20445f00000000000000000000000000000000000000040000000000000000000000000039
:0d447f000000000000000000000000000030
:20448c00000000000000000000000000000000000000000000000000000000000000000010
:2044ac000000000000000000000000000000000000000000000000000000000000000000f0
:2044cc000000000000000000000000000000000000000000000000000000000000000000d0
:204b5c004000000000000000000000000000000000000000000000000000000000000000f9
:204b7c00000000000000000000000000000000000000000000000000000000000000000019
:204b9c000000000000000000000000000000000000000000000000000000000000000000f9
:0d4bbc0000000000000000000000000000ec
:204bc9000002000000000000000000000000000000000000000000000000000000000000ca
:204be9000000000000000000000000000000000000000000000000000000000000000000ac
:204c090000000000000000000000000000000000000000000000000000000000000000008b
:0d4c2900000000000000000000000000007e
:204c360000000000000000000000000000000000000000000000000000000000000000005e
:204c560000000000000000000000000000000000000000000000000000000000000000003e
:204c760000000000000000000000000000000000000000000000000000000000000000001e
:0d4c96000000000000000000000000000011
:204ca300800000000000000000000000000000000000000000000000000000000000000071
:204cc3000000000000000000000000000000000000000000000000000000000000000000d1
:204ce3000000000000000000000000000000000000000000000000000000000000000000b1
:0d4d030000000000000000000000000000a3
:204d1000800000000000000000000000000000000000000000000000000000000000000003
:204d3000000000000000000000000000000000000000000000000000000000000000000063
:204d5000000000000000000000000000000000000000000000000000000000000000000043
:0d4d70000000000000000000000000000036
:204d7d00000000000000000000000000000000000000000000000000000000000000000016
:204d9d000000000000000000000000000000000000000000000000000000000000000000f6
:204dbd000000000000000000000000000000000000000000000000000000000000000000d6
:0d4ddd0000000000000000000000000000c9
:204dea000001000000000000000000000000000000000000000000000000000000000000a8
:204e0a00000000000000000000000000000000000000000000000000000000000000000088
:204e2a00000000000000000000000000000000000000000000000000000000000000000068
:0d4e4a00000000000000000000000000005b
:204e570000000000000000000000000000000000000000000000000000000000000000003b
:204e770000000000000000000000000000000000000000000000000000000000000000001b
:204e97000000000000000000000000000000000000000000000000000000000000000000fb
:0d4eb70000000000000000000000000000ee
:204ec4000000000000000000000000000000000000000000000000000000000000000000ce
:204ee4000000000000000000000000000000000000000000000000000000000000000000ae
:204f040000000000000000000000000000000000000000000000000000000000000000008d
:0d4f24000000000000000000000000000080
:204f3100000000000000000000000000000000000000000000000000000000000000000060
:204f5100000000000000000000000000000000000000000000000000000000000000000040
:204f7100000000000000000000000000000000000000000000000000000000000000000020
:0d4f91000000000000000000000000000013
:204f9e004000000000000000000000000000000000000000000000000000000000000000b3
:204fbe000000000000000000000000000000000000000000000000000000000000000000d3
:204fde000000000000000000000000000000000000000000000000000000000000000000b3
:0d4ffe0000000000000000000000000000a6
:20500b00000000000000000000000000000000000000000000000000000000000000000085
:20502b00000000000000000000000000000000000000000000000000000000000000000065
:20504b00000000000000000000000000000000000000000000000000000000000000000045
:0d506b000000000000000000000000000038
:20507800000000000000000000000000000000000000000000000000000000000000000018
:205098000000000000000000000000000000000000000000000000000000000000000000f8
:2050b8000000000000000000000000000000000000000000000000000000000000000000d8
:0d50d80000000000000000000000000000cb
:2050e50080000000000000000000000000000000000000000000000000000000000000002b
:2051050000000000000000000000000000000000000000000000000000000000000000008a
:2051250000000000000000000000000000000000000000000000000000000000000000006a
:0d514500000000000000000000000000005d
:205152008000000000000000000000000000000000000000000000000000000000000000bd
:2051720000000000000000000000000000000000000000000000000000000000000000001d
:205192000000000000000000000000000000000000000000000000000000000000000000fd
:0d51b20000000000000000000000000000f0
:2051bf000000000000000000000000000000000000000000000000000000000000000000d0
:2051df000000000000000000000000000000000000000000000000000000000000000000b0
:2051ff00000000000000000000000000000000000000000000000000000000000000000090
:0d521f000000000000000000000000000082
:20522c00400000000000000000000000000000000000000000000000000000000000000022
:20524c00000000000000000000000000000000000000000000000000000000000000000042
:20526c00000000000000000000000000000000000000000000000000000000000000000022
:0d528c000000000000000000000000000015
:205299000002000000000000000000000000000000000000000000000000000000000000f3
:2052b9000000000000000000000000000000000000000000000000000000000000000000d5
:2052d9000000000000000000000000000000000000000000000000000000000000000000b5
:0d52f90000000000000000000000000000a8
:20530600000000000000000000000000000000000000000000000000000000000000000087
:20532600000000000000000000000000000000000000000000000000000000000000000067
:20534600000000000000000000000000000000000000000000000000000000000000000047
:0d536600000000000000000000000000003a
:2053730080000000000000000000000000000000000000000000000000000000000000009a
:205393000000000000000000000000000000000000000000000000000000000000000000fa
:2053b3000000000000000000000000000000000000000000000000000000000000000000da
:0d53d30000000000000000000000000000cd
:2053e00080000000000000000000000000000000000000000000000000000000000000002d
:2054000000000000000000000000000000000000000000000000000000000000000000008c
:2054200000000000000000000000000000000000000000000000000000000000000000006c
:0d544000000000000000000000000000005f
:20544d0000000000000000000000000000000000000000000000000000000000000000003f
:20546d0000000000000000000000000000000000000000000000000000000000000000001f
:20548d000000000000000000000000000000000000000000000000000000000000000000ff
:0d54ad0000000000000000000000000000f2
:2054ba000001000000000000000000000000000000000000000000000000000000000000d1
:2054da000000000000000000000000000000000000000000000000000000000000000000b2
:2054fa00000000000000000000000000000000000000000000000000000000000000000092
:0d551a000000000000000000000000000084
:20552700000000000000000000000000000000000000000000000000000000000000000064
:20554700000000000000000000000000000000000000000000000000000000000000000044
:20556700000000000000000000000000000000000000000000000000000000000000000024
:0d5587000000000000000000000000000017
:205594000000000000000000000000000000000000000000000000000000000000000000f7
:2055b4000000000000000000000000000000000000000000000000000000000000000000d7
:2055d4000000000000000000000000000000000000000000000000000000000000000000b7
:0d55f40000000000000000000000000000aa
:20560100000000000000000000000000000000000000000000000000000000000000000089
:20562100000000000000000000000000000000000000000000000000000000000000000069
:20564100000000000000000000000000000000000000000000000000000000000000000049
:0d566100000000000000000000000000003c
:20566e004000000000000000000000000000000000000000000000000000000000000000dc
:20568e000000000000000000000000000000000000000000000000000000000000000000fc
:2056ae000000000000000000000000000000000000000000000000000000000000000000dc
:0d56ce0000000000000000000000000000cf
:2056db000000000000000000000000000000000000000000000000000000000000000000af
:2056fb0000000000000000000000000000000000000000000000000000000000000000008f
:20571b0000000000000000000000000000000000000000000000000000000000000000006e
:0d573b000000000000000000000000000061
:20574800000000000000000000000000000000000000000000000000000000000000000041
:20576800000000000000000000000000000000000000000000000000000000000000000021
:20578800000000000000000000000000000000000000000000000000000000000000000001
:0d57a80000000000000000000000000000f4
:2057b500800000000000000000000000000000000000000000000000000000000000000054
:2057d5000000000000000000000000000000000000000000000000000000000000000000b4
:2057f500000000000000000000000000000000000000000000000000000000000000000094
:0d5815000000000000000000000000000086
:205822008000000000000000000000000000000000000000000000000000000000000000e6
:20584200000000000000000000000000000000000000000000000000000000000000000046
:20586200000000000000000000000000000000000000000000000000000000000000000026
:0d5882000000000000000000000000000019
:20588f000000000000000000000000000000000000000000000000000000000000000000f9
:2058af000000000000000000000000000000000000000000000000000000000000000000d9
:2058cf000000000000000000000000000000000000000000000000000000000000000000b9
:0d58ef0000000000000000000000000000ac
:2058fc0000000000000000000000000000000000000000000000000000000000000000008c
:20591c0000000000000000000000000000000000000000000000000000000000000000006b
:20593c0000000000000000000000000000000000000000000000000000000000000000004b
:0d595c00000000000000000000000000003e
:2059690000000000000000000000000000000000000000000000000000000000000000001e
:205989000000000000000000000000000000000000000000000000000000000000000000fe
:2059a9000000000000000000000000000000000000000000000000000000000000000000de
:0d59c90000000000000000000000000000d1
:2059d6000000000000000000000000000000000000000000000000000000000000000000b1
:2059f600000000000000000000000000000000000000000000000000000000000000000091
:205a1600000000000000000000000000000000000000000000000000000000000000000070
:0d5a36000000000000000000000000000063
:205a4300000000000000000000000000000000000000000000000000000000000000000043
:205a6300000000000000000000000000000000000000000000000000000000000000000023
:205a8300000000000000000000000000000000000000000100000000000000000000000002
:0d5aa30000000000000000000000000000f6
:205ab0000000000000000000000000000000000000000000000000000000000000000000d6
:205ad0000000000000000000000000000000000000000000000000000000000000000000b6
:205af000000000000000000000000000000000000000000000000000000000000000000096
:0d5b10000000000000000000000000000088
:205b1d00000000000000000000000000000000000000000000000000000000000000000068
:205b3d00000000000000000000000000000000000000000000000000000000000000000048
:205b5d00000000000000000000000000000000000000000000000000000000000000000028
:0d5b7d00000000000000000000000000001b
:205b8a000000000000000000000000000000000000000000000000000000000000000000fb
:205baa000000000000000000000000000000000000000000000000000000000000000000db
:205bca000000000000000000000000000000000000030000000000000000000000000000b8
:0d5bea0000000000000000000000000000ae
:205bf70000000000000000000000000000000000000000000000000000000000000000008e
:205c170000000000000000000000000000000000000000000000000000000000000000006d
:205c370000000000000000000000000000000000000100000000000000000000000000004c
:0d5c57000000000000000000000000000040
:205c6400000000000000000000000000000000000000000000000000000000000000000020
:205c8400000000000000000000000000000000000000000000000000000000000000000000
:205ca4000000000000000000000000000000000000000000000000000000000000000000e0
:0d5cc40000000000000000000000000000d3
:205cd1000000000000000000000000000000000000000000000000000000000000000000b3
:205cf100000000000000000000000000000000000000000000000000000000000000000093
:205d1100000000000000000000000000000000000000000000000000000000000000000072
:0d5d31000000000000000000000000000065
:205d3e00000000000000000000000000000000000000000000000000000000000000000045
:205d5e00000000000000000000000000000000000000000000000000000000000000000025
:205d7e00000000000000000000000000000000000000000000000000000000000000000005
:0d5d9e0000000000000000000000000000f8
:205dab000000000000000000000000000000000000000000000000000000000000000000d8
:205dcb000000000000000000000000000000000000000000000000000000000000000000b8
:205deb00000000000000000000000000000000000000000000000000000000000000000098
:0d5e0b00000000000000000000000000008a
:205e180000000000000000000000000000000000000000000000000000000000000000006a
:205e380000000000000000000000000000000000000000000000000000000000000000004a
:205e5800000000000000000000000000000000000000000000802940200000000000000021
:0d5e7800000000000000000000000000001d
:205e85000000000000000000000000000000000000000000000000000000000000000000fd
:205ea5000000000000000000000000000000000000000000000000000000000000000000dd
:205ec500000000000000000000000000000000000000000000101680000000000000000017
:0d5ee50000000000000000000000000000b0
:205ef200000000000000000000000000000000000000000000000000000000000000000090
:205f120000000000000000000000000000000000000000000000000000000000000000006f
:205f320000000000000000000000000000000000000000000000000000000000000000004f
:20669c000000000000000000000000000000000000000000000001000000000000000000dd
:2066bc000000000000000000000000000000000000000000000000000000000000000000be
:2066dc0000000000000000000000000000000000000000000000000000000000000000009e
:0d66fc000000000000000001600000000030
:20670900000000000000000000000000000000000000000000000000000000000000000070
:20672900000000000000000000000000000000000000000000000000000000000000000050
:20674900000000000000000000000000000000000000000000000000000000000000000030
:0d6769000000000000000000000000000023
:20677600000000000000000000000000000000000000000000000000000000000000000003
:206796000000000000000000000000000000000000000000000000000000000000000000e3
:2067b60000000000000000000000000000000000000000000000000000000000000000289b
:0d67d6000000086029020000000000000023
:2067e300000000000000000000000000000000000000000000000000000000000000000096
:20680300000000000000000000000000000000000000000000000000000000000000000075
:20682300000000000000000000000000000000000000000000000000000000000000002035
:0d68430000d00f00148500000000000000d0
:20685000000000000000000000000000000000000000000000000000000000000000000028
:20687000000000000000000000000000000000000000000000000000000000000000000008
:206890000000000000000000000000000000000000000000000000000000000000000000e8
:0d68b00000000000000000000000000000db
:2068bd000000000000000000000000000000000000000000000000000000000000000000bb
:2068dd0000000000000000000000000000000000000000000000000000000000000000009b
:2068fd0000000000000000000000000000000000000000000000000000000000000000007b
:0d691d00000000000000000000000000006d
:20692a0000000000000000000000000000000000000000000000000000000000000000004d
:20694a0000000000000000000000000000000000000000000000000000000000000000002d
:20696a0000000000000000000000000000000000000000000000000000000000000000000d
:0d698a000000000000000000000000000000
:206997000000000000000000000000000000000000000000000000000000000000000000e0
:2069b7000000000000000000000000000000000000000000000000000000000000000000c0
:2069d7000000000000000000000000000000000000000000000000000000000000000000a0
:0d69f7000000000000000000000000000093
:206a0400000000000000000000000000000000000000000000000000000000000000000072
:206a2400000000000000000000000000000000000000000000000000000000000000000052
:206a4400000000000000000000000000000000000000000000000000000000000000000032
:0d6a64000000000000000000000000000025
:206a7100000000000000000000000000000000000000000000000000000000000000000005
:206a91000000000000000000000000000000000000000000000000000000000000000000e5
:206ab1000000000000000000000000000000000000000000000000000000000000000000c5
:0d6ad10000000000000000000000000000b8
:206ade00000000000000000000000000000000000000000000000000000000000000000098
:206afe00000000000000000000000000000000000000000000000000000000000000000078
:206b1e00000000000000000000000000000000000000000000000000000000000000000255
:0d6b3e0080000000000000000001c05100b8
:206b4b0000000000000000000000000000000000000000000000000000000000000000002a
:206b6b0000000000000000000000000000000000000000000000000000000000000000000a
:206b8b000000000000000000000000000000000000000000000000000000000000000001e9
:0d6bab000000000000000000038500a100b4
:206bb8000000000000000000000000000000000000000000000000000000000000000000bd
:206bd80000000000000000000000000000000000000000000000000000000000000000009d
:206bf80000000000000000000000000000000000000000000000000000000000000000007d
:0d6c1800000000000000000010000000005f
:206c250000000000000000000000000000000000000000000000000000000000000000004f
:206c450000000000000000000000000000000000000000000000000000000000000000002f
:206c650000000000000000000000000000000000000000000000000000000000000000000f
:0d6c85000000000000000000000000000002
:206c92000000000000000000000000000000000000000000000000000000000000000000e2
:206cb2000000000000000000000000000000000000000000000000000000000000000000c2
:206cd2000000000000000000000000000000000000000000000000000000000000000000a2
:0d6cf2000000000000000000000000000095
:206cff00000000000000000000000000000000000000000000000000000000000000000075
:206d1f00000000000000000000000000000000000000000000000000000000000000000054
:206d3f00000000000000000000000000000000000000000000000000000000000000000034
:0d6d5f000000900000000000000000000097
:206d6c004000000000000000000000000000000000000000000000000000000000000000c7
:206d8c000000000000000000000000000000000000000000000000000000000000000000e7
:206dac00000000000000000000000000000000000000000001530150000036056e0a20004f
:0d6dcc0008d001ec010000000040000000b4
:206dd900000200000000000000000000000000000000000000000000000000000000000098
:206df90000000000000000000000000000000000000000000000000000000000000000007a
:206e190000000000000000000000000000000000000000000db03d401000142e6b02000060
:0d6e390000100176008400000380000000be
:206e460000000000000000000000000000000000000000000000000000000000000000002c
:206e660000000000000000000000000000000000000000000000000000000000000000000c
:206e86000000000000000000000000000000000000028000000315500a0000005cc21228a0
:0d6ea600005810000000a0000000000000d7
:206eb30080000000000000000000000000000000000000000000000000000000000000003f
:206ed30000000000000000000000000000000000000000000000000000000000000000009f
:206ef300000000000000000000000000000000000002000f00342a801c00002c30c2002036
:0d6f13000008800000008000000000000069
:206f20008000000000000000000000000000000000000000000000000000000000000000d1
:206f4000000000000000000000000000000000000000000000000000000000000000000031
:206f600000000000000000000000000000000000000100080000000000002039ca1443800e
:0d6f800000800000000000020614f4a010c4
:206f8d000000000000000000000000000000000000000000000000000000000000000000e4
:206fad000000000000000000000000000000000000000000000000000000000000000000c4
:206fcd00000000000000000000000000000000000001000100000000000004402014010029
:0d6fed0000100000000000014025c4200439
:206ffa00000300000000000000000000000000000000000000000000000000000000000074
:20701a00000000000000000000000000000000000000000000000000000000000000000056
:20703a00000000000000000000000000000000000000000000000000010000000000000035
:0d705a00005819f6100000020035ea040885
:20706700000000000000000000000000000000000000000000000000000000000000000009
:207087000000000000000000000000000000000000000000000000000000000000000000e9
:2070a7000000000000000000000000000000000000000000000000000100002c000000009c
:0d70c7000008ede11000000340160f50001e
:2070d40000000000000000000000000000000000000000000000000000000000000000009c
:2070f40000000000000000000000000000000000000000000000000000000000000000007c
:2071140000000000000000000000000000000000000000018100000000000001df101100d8
:0d7134000001cfaa99080000000000000033
:2071410000000000000000000000000000000000000000000000000000000000000000002e
:2071610000000000000000000000000000000000000000000000000000000000000000000e
:2071810000000000000000000000000000000000000000000a000000000000025900004049
:0d71a1000001050294000000000000000045
:2071ae000000000000000000000000000000000000000000000000000000000000000000c1
:2071ce000000000000000000000000000000000000000000000000000000000000000000a1
:2071ee0000000000000000000000000000000000000000000000000000000004000000007d
:0d720e000000000000000000000005a300cb
:20721b00000000000000000000000000000000000000000000000000000000000000000053
:20723b00000000000000000000000000000000000000000000000000000000000000000033
:20725b000000000000000000000000000000000000000000000000000000002000000000f3
:0d727b000000b0000000000040140a5000a8
:207288000000000000000000000000000000000000000000000000000000000000000000e6
:2072a8000000000000000000000000000000000000000000000000000000000000000000c6
:2072c800000000000000000000000000000000000000000000000000000020044ea0000094
:0d72e8000000a97a950000000000000000e1
:2072f5008000000000000000000000000000000000000000000000000000000000000000f9
:20731500000000000000000000000000000000000000000000000000000000000000000058
:20733500000000000000000000000000000000000000008000000000000014205000000034
:0d7355000000093ea400000002000000003e
:2073620000000000000000000000000000000000000000000000000000000000000000000b
:207382000000000000000000000000000000000000000000000000000000000000000000eb
:2073a2000000000000000000000000000000000000010000000000000000000748850200f4
:0d73c2000080007734400001c00000000191
:2073cf0000000000000000000000000000000000000000000000000000000000000000009e
:2073ef0000000000000000000000000000000000000000000000000000000000000000007e
:20740f000000000000000000000000000000000000010000000000000000002bf08a0000b7
:0d742f0000100b6338000000000000000298
:02743c0000004e
:02743e0011013a
:02744000010148
:20744200000000000000000000000000000000002000000000000080000000000000001674
:207462000000000008008000000000200000000000008000000000000000000000000000e2
:207482000000000002000000000000000000000000000000000000000000000000000000e8
:0d74a20000000000000008000000000000d5
:2074af000000000000000000000000000000000000000000000000000000000000000002bb
:2074cf00000000000000500000000000000000000000000d00000000000000000000000040
:2074ef0000000000000000000000000000000000000000000000000000000000000000007d
:0d750f000000000000000000d0000000009f
:20751c000000000000000000000000000000000010000000000000400000000000000000ff
:20753c000000000004000000000000100000000000004000000000000000000000000000db
:20755c0000000000010000000000000000000000000000000000000000000000000000000e
:0d757c0000000000000004000000000000fe
:207589000000000000000000000000000000000000000000000000000000000000000000e2
:2075a9000000000000000000000000000000000000000000000000000000000000000000c2
:2075c9000000000000000000000000000000000000000000000000000000000000000000a2
:0d75e9000000000000000000000000000095
:2075f6000000000000000000000000000000000020000000000000800300000000000000d2
:207616000000000008000000300000200000008000008000000300000000000000000000f9
:20763600000000000200000000000000000000000000000000000000000000000000000032
:0d76560000000000000008000000300000ef
:20766300000000000000000000000000000000000000000040000000008001000000000046
:20768300000000000000000030000000034000c000000000000300000000000000000000b1
:2076a3000000000000000000040000000000000000000000000000000000000000000000c3
:0d76c300000000000000000000003000008a
:2076d00000000000000000000000000000000000000000000000000000000000000000009a
:2076f00000000000000000100000000000000000000000000000000000000000000000006a
:20771000000000000000000000000000000000000000000000000000000000000000000059
:0d773000000000000000000000000000004c
:20773d0000000000000000000000000000000000000000000000000000000000000000002c
:20775d0000000000000000000000000000000000000000000000000000000000000000000c
:20777d000000000000000000000000000000000000000000000000000000000000000000ec
:0d779d0000000000000000000000000000df
:2077aa000000000000000000000000000000000000000000000000000002000000000000bd
:2077ca000800000000000020000000000000810000000000020000000000000000000000f4
:2077ea00000000000000000008000000000000000000000000000000000000000000000077
:0d780a000000000000000000000000000071
:20781700000000000000000000000000000000000000000000000000000000000000000051
:20783700000000000000000000000000000000000000000d00000000000000000000000024
:2078570000000000000000000400000000000000000000000000000000000000000000000d
:0d7877000000000200000000000000000002
:207884000000000000000000000000000000000000000000000000000000030000000000e1
:2078a400000c00000400000000000000000000c000000000000300000000000000000000f1
:2078c4000000000000000000000000000000000000000000000000000000000000000000a4
:0d78e4000000000000000000000000000097
:2078f1000000000000000000000000000000000000000000000000800000020000020000f3
:20791100000c000000000000000000200000000000008000000100000000000000000000a9
:20793100000000000000000000000000000000000000000000000000000000000000000036
:0d7951000000000000000000000000000029
:20795e00000000000000000000000000000000000000000000000000000000000000000009
:20797e00000000000000000060000000000000000000000000000000000000000000000089
:20799e000000000000000000000000000000000000000000000000000000000000000000c9
:0d79be0000000000000000000000000000bc
:2079cb0000000000000000000000000000000000000000000000004000000000000100005b
:2079eb000000000004000000000000100340000000004000000000000000000000000000e5
:207a0b0000000000000000000000000000000000000000000000000000000000000000005b
:0d7a2b00000000000000000000000000004e
:207a38000000000000000000000000000000000000000040000000000001000000000000ed
:207a58000000000000000010000000000000400000000000010000000000000000000000bd
:207a78000000000000000204000000000000000000000000000000000000000000000000e8
:0d7a980000000000000000000010000000d1
:207aa500000000000000000000000000000000000001c000000000800580000000020000f9
:207ac500000000000000000000000020000000000000800000000000000000000000000001
:207ae5000000000000001e0000000000000000000000000000000000000000000000000063
:0d7b05000000000000000000000000000073
:207b1200000000000000000000000000000000000000000000000000000000000000000053
:207b3200000000000000000000000000000000000000000000000000000000000000000033
:207b5200000000000000000000000000000000000000000000000000000000000000000013
:207e9a000000000000001000000000000000000000000000000000000000000000000000b8
:207eba00000000000010000000000000000000000000000000000000000000000000000098
:0d7eda00000000000000000000000000009b
:207ee70000000000000000000000000000000000000000000000000000000000000000007b
:207f070000000000000000000000000000000000000000000000000000000000000000005a
:207f270000000000000000000000000000000000000000000000000000000000000000003a
:0d7f4700000000000000000000000000002d
:207f540000000000000000000000000000000000000000000000000000000000000000000d
:207f74000000000000000000000000000000000000000000000000000000000000000000ed
:207f94000000000000000000000000000000000000000000000000000000000000000000cd
:0d7fb40000000000000000000000000000c0
:207fc1000000000000000000000000000000000000000000000000000000000000000000a0
:207fe100000000000000000000000000000000000000000000000000000000000000000080
:2080010000000000000000000000000000000000000000000000000000000000000000005f
:0d8021000000000000000000000000000052
:20802e00000000000000000000000000000000000000000000000000000000000000000032
:20804e00000000000000000000000000000000000000000000000000000000000000000012
:20806e000000000000000000000000000000000000000000000000000000000000000000f2
:0d808e0000000000000000000000000000e5
:20809b000000000000000000000000000000000000000000000000000000000000000000c5
:2080bb000000000000000000000000000000000000000000000000000000000000000000a5
:2080db00000000000280000000000000000000000000000000000000000000000000000003
:0d80fb000000000000000000000000000078
:20810800000000000000000000000000000000000000000000000000000000000000000057
:20812800000000000000000000000000000000000000000000000000000000000000000037
:20814800000000000000000000000000000000000000000000000000000000000000000017
:20891f008000000000000000000000000000000000000000000000000000000000000000b8
:20893f00000000000000000000000000000000000000000000000000000000000000000018
:20895f000000000000000000000000000000000000000000000000000000000000000000f8
:0d897f0000000000000000000000000000eb
:20898c0080000000000000000000000000000000000000000000000000000000000000004b
:2089ac000000000000000000000000000000000000000001000000000000000000000000aa
:2089cc0000000000000000000000000000000000000000000000000000000000000000008b
:0d89ec00000000000000000000000000007e
:2089f90000000000000000000000000000000000000000000000000000000000000000005e
:208a190000000000000000000000000000000000000000000000000000000000000000003d
:208a390000000000000000000000000000000000000000000000000000000000000000001d
:0d8a59000000000000000000000000000010
:208a66000000000000000000000000000000000000000000000000000000000000000000f0
:208a86000000000000000000000000000000000000000000000000000000000000000000d0
:208aa6000000000000000000000000000000000000000000000000000000000000000000b0
:0d8ac60000000000000000000000000000a3
:208ad300400000000000000000000000000000000000000000000000000000000000000043
:208af300000000000000000000000000000000000000000000000000000000000000000063
:208b1300000000000000000000000000000000000000000000000000000000000000000042
:0d8b33000000000000000000000000000035
:208b4000000000000000000000000000000000000000000000000000000000000000000015
:208b60000000000000000000000000000000000000000000000000000000000000000000f5
:208b80000000000000000000000000000000000000000000000000000000000000000000d5
:0d8ba00000000000000000000000000000c8
:208bad00006800000000000000000000000000000000000000000000000000000000000040
:208bcd00000000000000000000000000000000000000000000000000000000000000000088
:208bed00000000000000000000000000000000000000000000000000000000000000000068
:0d8c0d00000000000000000000000000005a
:208c1a00000000000000000000000000000000000300000000000100000000000000000036
:208c3a0000000000000000000000000000000000000000000000000000000000000000001a
:208c5a000000000000000000000000000000000000000000000000000000000000000000fa
:0d8c7a0000000000000000000000000000ed
:208c87000001000000000000000000000000000000000000000001000000000000000000cb
:208ca70000000000000000000000000180000000000000000000000000000000000000002c
:208cc70000000000000000000000000000000000000000000000000000000000000000008d
:0d8ce7000000000000000000000000000080
:208cf400080000000000000000000000000000000000000000000000000000000000000058
:208d140000000000000000000000000000000000000000000000000000000000000000003f
:208d340000000000000000000000000000000000000000000000000000000000000000001f
:0d8d54000000000000000000000000000012
:208d61004400000000000000000000000000000000000000000000000000000000000000ae
:208d81000000000000000000000000000000000000000000000000000000000000000000d2
:208da1000000000000000000000000000000000000000000000000000000000000000000b2
:0d8dc10000000000000000000000000000a5
:208dce00800000000000000000000000000000000000000000000000000000000000000005
:208dee00000000000000000000000000000000000000000000000000000000000000000065
:208e0e00000000000000000000000000000000000000000000000000000000000000000044
:0d8e2e000000000000001000000000000027
:208e3b00000000000000000000000000000000000000000000000000000000000000000017
:208e5b000000000000000000000000000000000000000000000000000000000000000000f7
:208e7b000000000000000000000000000000000000000000000000000000000000000000d7
:0d8e9b0000000000000000000000000000ca
:208ea8000002000000000000000000000000000000000000000000000000000000000000a8
:208ec80000000000000000000000000000000000000000000000000000000000000000008a
:208ee80000000000000000000000000000000000000000000000000000000000000000006a
:0d8f0800000000000000000000000000005c
:208f15004000000000000000000000000000000000000000000000000000000000000000fc
:208f350000000000000000000000000000000000000000000000000000000000000000001c
:208f55000000000000000000000000000000000000000000000000000000000000000000fc
:0d8f750000000000000000000000000000ef
:208f82000000000000000000000000000000000000000000000000000000000000000000cf
:209451000000000010000000000000000000000000000000000000000000000000000000eb
:209471000000000000000000000000000000000000000000000000000000000000000000db
:0d94910000000000000000000000000000ce
:20949e000000000000000000000000000000000000000000000000000000000000000000ae
:2094be0000000000000000000000000000000000000000000000000000000000000000008e
:2094de0000000000000000000000000000000000000000000000000000000000000000006e
:0d94fe000000000000000000000000000061
:20950b00000000000000000000000000000000000000000000000000000000000000000040
:20952b00000000000000000000000000000000000000000000000000000000000000000020
:20954b00000000000000000000000000000000000000000000000000000000000000000000
:0d956b0000000000000000000000000000f3
:209578000000000000000000000000000000000000000000000000000000000000000000d3
:209598000000000000000000000000000000000000000000000000000000000000000000b3
:2095b800000000000000000000000000000000000000000000000000000000000000000093
:0d95d8000000000000000000000000000086
:2095e500000000000000000000000000000000000000000000000000000000000000000066
:20960500000000001000000000000000000000000000000000000000000000000000000035
:20962500000000000000000000000000000000000000000000000000000000000000000025
:0d9645000000000000000000000000000018
:209652002400000000000000000000000000000000000000000000000000000000000000d4
:209672000000000000000000000000000000000000000000000000000000000000000000d8
:209692000000000000000000000000000000000000000000000000000000000000000000b8
:0d96b20000000000000000000000000000ab
:2096bf0040000000000000000000000000000000000000000000000000000000000000004b
:2096df0000000000000000000000000000000000000000000000000000000000000000006b
:2096ff0000000000000000000000000000000000000000000000000000000000000000004b
:0d971f00000000000000000000000000003d
:20972c0080000000000000000000000000000000000000000000000000000000000000009d
:20974c000000000000000000000000000000000000000000000000000000000000000000fd
:20976c000000000000000000000000000000000000000000000000000000000000000000dd
:0d978c0000000000000000000000000000d0
:209799000000000000000000000000000000000000000000000000000000000000000000b0
:2097b900000000000000000000000000000000000000000000000000000000000000000090
:2097d900000000000000000000000000000000000000000000000000000000000000000070
:0d97f9000000000000000000000000000063
:2098060008000000000000000000000000000000000000000000000000000000000000003a
:20982600000000000000000000000000000000000000000000000000000000000000000022
:20984600000000000000000000000000000000000000000000000000000000000000000002
:0d98660000000000000000000000000000f5
:20987300800000000000000000000000000000000000000000000000000000000000000055
:209893000000000000000000000000000000000000000000000000000000000000000000b5
:2098b300000000000000000000000000000000000000000000000000000000000000000095
:0d98d3000000000000000000000000000088
:2098e000000000000000000000000000000000000000000000000000000000000000000068
:20990000000000000000000000000000000000000000000000000000000000000000000047
:20992000000000000000000000000000000000000000000000000000000000000000000027
:0d994000000000000000000000000000001a
:20994d000000000000000000000000000000000000000000000000000000000000000000fa
:20996d000000000000000000000000000000000000000000000000000000000000000000da
:20998d000000000000000000000000000000000000000000000000000000000000000000ba
:0d99ad0000000000000000000000000000ad
:2099ba0000000000000000000000000000000000000000000000000000000000000000008d
:2099da0000000000000000000000000000000000000000000000000000000000000000006d
:2099fa0000000000001000000000000000000000000000000000000000000000000000003d
:0d9a1a00000000000000000000000000003f
:209a270000010000000000000000000000000000000000000000000000000000000000001e
:209a47000000000000000000000000000000000000000000000000000000000000000000ff
:209a67000000000000000000000000000000000000000000000000000000000000000000df
:0d9a870000000000000000000000000000d2
:209a94000000000000000000000000000000000000000000000000000000000000000000b2
:209ab400000000000000000000000000000000000000000000000000000000000000000092
:209ad400000000000000000000000000000000000000000000000000000000000000000072
:0d9af4000000000000000000000000000065
:209b01008000000000000000000000000000000000000000000000000000000000000000c4
:209b2100000000000000000000000000000000000000000000000000000000000000000024
:209b4100000000000000000000000000000000000000000000000000000000000000000004
:0d9b610000000000000000000000000000f7
:209b6e00800000000000000000000000000000000000000000000000000000000000000057
:209b8e000000000000000000000000000000000000000000000000000000000000000000b7
:209bae00000000000000000000000000000000000000000000000000000000000000000097
:0d9bce00000000000000000000000000008a
:209bdb00020000000000000000000000000000000000000000000000000000000000000068
:209bfb0000000000000000000000000000000000000000000000000000000000000000004a
:209c1b00000000000000000000000000000000000000000000000000000000000000000029
:0d9c3b00000000000000000000000000001c
:209c48000042000000000000000000000000000000000000000000000000000000000000ba
:209c68000000000000000000000000000000000000000000000000000000000000000000dc
:209c88000000000000000000000000000000000000000000000000000000000000000000bc
:0d9ca80000000000000000000000000000af
:209cb500402800000000000000000000000000000000000000000000000000000000000027
:209cd50000000000000000000000000000000000000000000000000000000000000000006f
:209cf50000000000000000000000000000000000000000000000000000000000000000004f
:0d9d15000000000000000000000000000041
:209d2200000000000000000000000000000000000000000000000000000000000000000021
:209d4200000000000000000000000000000000000000000000000000000000000000000001
:209d62000000000000000000000000000000000000000000000000000000000000000000e1
:0d9d820000000000000000000000000000d4
:209d8f00800000000000000000000000000000000000000000000000000000000000000034
:209daf00000000000000000000000000000000000000000000000000000000000000000094
:209dcf00000000000000000000000000000000000000000000000000000000000000000074
:0d9def000000000000000000000000000067
:209dfc008000000000000000000000000000000000000000000000000000000000000000c7
:209e1c00000000000000000000000000000000000000000000000000000000000000000026
:209e3c00000000000000000000000000000000000000000000000000000000000000000006
:0d9e5c0000000000000000000000000000f9
:209e69000000000000000000000000000000000000000000000000000000000000000000d9
:209e89000000000000000000000000000000000000000000000000000000000000000000b9
:209ea900000000000000000000000000000000000000000000000000000000000000000099
:0d9ec900000000000000000000000000008c
:209ed60000000000000000000000000000000000000000000000000000000000000000006c
:209ef60000000000000000000000000000000000000000000000000000000000000000004c
:209f160000000000000000000000000000000000000000000000000000000000000000002b
:0d9f3600000000000000000000000000001e
:209f43004000000000000000000000000000000000000000000000000000000000000000be
:209f63000000000000000000000000000000000000000000000000000000000000000000de
:209f83000000000000000000000000000000000000000000000000000000000000000000be
:0d9fa30000000000000000000000000000b1
:209fb00000020001000000000000000000000000000000000000000000000000000002008c
:209fd000000000000000000000000000000000000000000000000000000000000000000071
:209ff000000000000000000000000000000000000000000000000000000000000000000051
:0da010000000000000000000000000000043
:20a01d00000000020000000000000000000000000000000000000000000000000000010020
:20a03d00000000000000000000000000000000000000000000000000000000000000000003
:20a05d000000000000000000000000000000000000000000000000000000000000000000e3
:0da07d0000000000000000000000000000d6
:20a08a000000000000000000000000000000000000000000000000000000000000000000b6
:20a0aa00000000000000000000000000000000000000000000000000000000000000000096
:20a0ca00000000000000000000000000000000000000000000000000000000000000000076
:0da0ea000000000000000000000000000069
:20a0f700000100000000000000000000000000000000000000000000000000000000000048
:20a11700000000000000000000000000000000000000000000000000000000000000000028
:20a13700000000000000000000000000000000000000000000000000000000000000000008
:0da1570000000000000000000000000000fb
:20a1640080000000000000000000000000000000000000000000000000000000000000005b
:20a184000000000000000000000000000000000000000000000000000000000000000000bb
:20a1a40000000000000000000000000000000000000000000000000000000000000000009b
:0da1c400000000000000000000000000008e
:20a1d10000000000000000000000000000000000000000000000000000000000000000006e
:20a1f10000000000000000000000000000000000000000000000000000000000000000004e
:20a2110000000000000000000000000000000000000000000000000000000000000000002d
:0da231000000000000000000000000000020
:20a23e00800040000000000000000000000000000000000000000000000000000000000040
:20a25e000000000000000000000000000000000000000000000000000000000000000000e0
:20a27e000000000000000000000000000000000000000000000000000000000000000000c0
:0da29e0000000000000000000000000000b3
:20a2ab00000000000000000000000000000000000000000000000000000000000000000093
:20a2cb00000000000000000000000000000000000000000000000000000000000000000073
:20a2eb00000000000000000000000000000000000000000000000000000000000000000053
:0da30b000000000000000000000000000045
:20a31800000200000000000000000000000000000000000000000100000000000000000022
:20a33800000000000000000000000000000000000000000000000000000000000000000005
:20a358000000000000000000000000000000000000000000000000000000000000000000e5
:0da3780000000000000000000000000000d8
:20a385000000000000000000000000000000000000000000000000000000000000000000b8
:20a3a500000000000000000000000000000000000000000000000000000000000000000098
:20a3c500000000000000000000000000000000000000000000000000000000000000000078
:0da3e500000000000000000000000000006b
:20a3f20000000000000000000000000000000000000000000000000000000000000000004b
:20a4120000000000100000000000000000000000000000000000000000000000000000001a
:20a43200000000000000000000000000000000000000000008000000000000000000000002
:0da4520000000000000000000000000000fd
:20a45f000000000000000000000000000000000000000000000000000000000000000000dd
:20a47f000000000010000000000000000000000000000000000000000000000000000000ad
:20a49f0000000000000000000000000000000000000000000000000000000000000000009d
:0da4bf000000000000000000000000000090
:20a4cc00000000000000000000000000000000000000000000000000000000000000000070
:20a4ec00000000000000000000000000000000000000000000000000000000000000000050
:20a50c0000000000000000000000000000000000000000000000000000000000000000002f
:0da52c000000000000000000000000000022
:20a53900000000000000000000000000000000000000000000000000000000000000000002
:20a559000000000000000000000000000000000000000000000000000000000000000000e2
:20a579000000000000000000000000000000000000000000000000000000000000000000c2
:0da5990000000000000000000000000000b5
:20a5a600000000000000000000000000000000000000000000000000000000000000000095
:20a5c600000000000000000000000000000000000000000000000000000000000000000075
:20a5e600000000000000000000000000000000000000000000000000000000000000000055
:0da606000000000000000000000000000047
:20a61300000000000000000000000000000000000000000000000000000000000000000027
:20a63300000000000000000000000000000000000000000000000000000000000000000007
:20a653000000000000000000000000000000000000000000000000000000000000000000e7
:0da6730000000000000000000000000000da
:20a680000000000000000000000000000000000000000000000000000000000000000000ba
:20a6a00000000000000000000000000000000000000000000000000000000000000000009a
:20a6c00000000000000000000000000000000000000000000000000000000000000000007a
:0da6e000000000000000000000000000006d
:20a6ed0000000000000000000000000000000000000000000000000000000000000000004d
:20a70d0000000000000000000000000000000000000000000000000000000000000000002c
:20a72d0000000000000000000000000000000000000000000000000000000000000000000c
:0da74d0000000000000000000000000000ff
:20a75a000000000000000000000000000000000000000000000000000000000000000000df
:20a77a000000000000000000000000000000000000000000000000000000000000000000bf
:20a79a00000000000000000000000000000000000000000000f02940000000000000000046
:0da7ba000000000000000000000000000092
:20a7c700000000000000000000000000000000000000000000000000000000000000000072
:20a7e700000000000000000000000000000000000000000000000000000000000000000052
:20a80700000000000000000000000000000000000000000000801684000000000000000017
:0da827000000000000000000000000000024
:20a83400000000000000000000000000000000000000000000000000000000000000000004
:20a854000000000000000000000000000000000000000000000000000000000000000000e4
:20a874000000000000000000000000000000000000000000000000000000000000000000c4
:0da8940000000000000000000000000000b7
